:020000040800F2
:1000000000200020A11C0008391200083D12000841
:1000100000000000000000000000000000000000E0
:100020000000000000000000000000004112000875
:1000300000000000000000004512000849120008FE
:10004000F11C0008F11C0008F11C0008F11C00085C
:10005000F11C0008F11C0008F11C0008F11C00084C
:10006000F11C0008F11C0008F11C0008F11C00083C
:10007000F11C0008F11C0008F11C0008F11C00082C
:10008000F11C0008F11C000800000000F11C000831
:10009000F11C0008F11C0008F11C0008F11C00080C
:1000A000F11C0008F11C0008F11C0008F11C0008FC
:1000B000F11C000800000000F11C00080000000016
:1000C00008B5054B054803331B1A062B03D9044B0F
:1000D000002B00D0984708BD740000207400002059
:1000E000000000000648074908B5091A8910CB0F1F
:1000F0005918491003D0044B002B00D0984708BD75
:1001000074000020740000200000000010B5074CAF
:100110002378002B09D1FFF7D3FF054B002B02D02A
:10012000044800E000BF0123237010BD78000020C8
:1001300000000000F82F000808B5094B002B03D081
:100140000848094900E000BF08480368002B02D1B5
:10015000FFF7C8FF08BD064B002BF9D09847F7E71B
:1001600000000000F82F00087C0000207400002030
:100170000000000002780B78002A03D00130013122
:100180009A42F7D0D01A704702B471464908490024
:10019000095649008E4402BC7047C04602B47146FD
:1001A00049084900095C49008E4402BC7047C046BA
:1001B000002243088B4274D303098B425FD3030AA6
:1001C0008B4244D3030B8B4228D3030C8B420DD3B9
:1001D000FF22090212BA030C8B4202D31212090247
:1001E00065D0030B8B4219D300E0090AC30B8B4285
:1001F00001D3CB03C01A5241830B8B4201D38B0333
:10020000C01A5241430B8B4201D34B03C01A5241D7
:10021000030B8B4201D30B03C01A5241C30A8B421A
:1002200001D3CB02C01A5241830A8B4201D38B0205
:10023000C01A5241430A8B4201D34B02C01A5241A9
:10024000030A8B4201D30B02C01A5241CDD2C3091B
:100250008B4201D3CB01C01A524183098B4201D397
:100260008B01C01A524143098B4201D34B01C01A82
:10027000524103098B4201D30B01C01A5241C308FA
:100280008B4201D3CB00C01A524183088B4201D369
:100290008B00C01A524143088B4201D34B00C01A55
:1002A0005241411A00D20146524110467047FFE7C1
:1002B00001B5002000F00CF802BDC0460029F7D0BF
:1002C00003B5FFF775FF0EBC4243891A1847C046B5
:1002D0007047C04603685A0003D45B005B08C0182F
:1002E0007047802212061343F9E7C046F0B55F4617
:1002F00056464D464446F0B483B000292FD04B1EDD
:10030000924681469B46002701935B46FB18DC0F13
:10031000E4184B466410E5005E19301CFFF7DAFF65
:10032000019B8046A34210D00835281C4844FFF7A3
:10033000D1FFD04504D9BC4211D0631E9B46E4E7EF
:100340000138504503D2671CDFE75045F3D8301C15
:1003500003B03CBC90469946A246AB46F0BD002691
:10036000F5E7C046012809D0022805D0002801D0B1
:10037000002070470248FCE70248FAE70248F8E725
:100380008D0A0008A50A0008990A000830B5234B19
:1003900083B0051C8C1E002B2AD0201C01A900E074
:1003A00000BF002820D00199221CFFF79FFF041EE8
:1003B0001AD0FFF78FFF6368A864012B10D0201DAF
:1003C000002B1BDBFFF786FF0023E8642B65036827
:1003D000002B17DBFFF77EFF2861002003B030BD44
:1003E000002305202B61F9E7002309202B61F5E7A5
:1003F0000B480C49091AC9100191D5E70123E8649B
:100400002B65E4E71801000FFFF7ACFF031C5A420D
:100410005341286109205B421840DFE700000000DB
:100420002C350008A4360008036810B5041CDA0750
:1004300005D49B070FD5483000F09EFC23685A076F
:100440000FD51A0714D5DB0604D4201CD130FF3099
:1004500000F09EFC10BD483000F08AFC23685A076B
:10046000EFD4201CD03000F08BFC23681A07EAD4AC
:10047000201C5130FF3000F087FC2368E3E7C046C2
:1004800002680023002A00D01318181C7047C046C9
:10049000092070477047C04638B5041C0D1C08E0A1
:1004A0002B6C01206361211C2A1C236998470828B2
:1004B00007D1201C296CFFF769FF0028F0D002F05B
:1004C00023FD0728FBD10020296CFFF7E3FF281D3F
:1004D00000F038FCF0B54F464646C0B4C368324C15
:1004E0009946A5448369171C051C0431402205A8C0
:1004F000984601F09FFC002304AC216C281C049357
:10050000FFF744FF794279410A23061C5F1A002E47
:1005100015D0A36B10216364434639430193C9B2DC
:10052000009401202A1C2B1CC847002833D1301C02
:10053000F5239B009D440CBC90469946F0BDF022EB
:10054000236C211C6B6152007CA801F073FC291CF8
:100550007CAA2B69381C98478A9B061C636403930A
:100560004346009401930120391C2A1C2B1CC847C8
:10057000002810D1F022201C7CA9520001F05AFC66
:10058000082E06D1281C216CFFF700FF0927061C46
:10059000BDE7072E01D00920CAE70020216CFFF734
:1005A00079FF05A800F0CEFB2CFCFFFF406C7047E4
:1005B00070B5CB6BFAB00B64041C0E1C03A804319D
:1005C000402201F037FC01235B42029306E0211C2C
:1005D00002AA23699847051E082D0AD1129B201CE8
:1005E000191C0193FFF7D2FE0028F0D009207AB041
:1005F00070BD02A8FFF718FF062DF7D1201C311C93
:10060000FFF74AFF08B58261DA6BC1601A64191CF2
:100610000022FFF75FFF08BD38B54369041C0B6477
:10062000C3680D1C002B04D00122FFF753FF02F01A
:100630006BFC0220211C2A1C23699847072807D03D
:10064000082803D1201C291CFFF726FF02F05CFCC0
:100650000020296CFFF71EFF281D00F073FBC04629
:1006600008B5C368002B05D0CB6B00220B64FFF7E5
:1006700031FF08BDFFF79CFFFBE7C0467047C0464F
:1006800008B58368002B02D0011C0120984708BDE3
:1006900010B5012907D0002907D003390224012908
:1006A00001D9201C10BD0124FBE70224002BF8D146
:1006B0000F2AF6D8920080184268029B00241A6024
:1006C000EFE7C04600B585B003AB0A1C00930021DC
:1006D0000023FFF7DDFF039805B000BD10B5012929
:1006E00007D0002907D003390224012901D9201C91
:1006F00010BD0124FBE70224002BF8D10F2AF6D805
:10070000029B92001B68801843600024EFE7C046FC
:100710000B1C00B585B0039203AA009200211A1C9D
:100720000023FFF7DBFF05B000BDC04670B51A4CD3
:10073000D36BA5441364061C0D1C19A8111D40227F
:1007400001F078FB01235B42189314E018A80C21F8
:1007500002AAFFF7DDFF18A8291CB047002812D114
:10076000069B083002A918AA01939847041E052C7D
:100770000AD0092807D0289B02A8191C0193FFF76B
:1007800005FE0028E2D0092418A8FFF74DFE201C22
:1007900090239B009D4470BDC0FDFFFFF0B55F46F8
:1007A00056464D46444693460322F0B41E1C131C85
:1007B0008BB003400193CB6C0D1C1C1D1B6808946F
:1007C0000793002E66D11B02079306AB5E731A7364
:1007D000019B022B00D16EE02B6DDB0747D4002379
:1007E000A846B24602930833034003932668002EBE
:1007F00000D126E15346022B49D02688658804346F
:1008000001232F1C99469F4343469B6C0F219C4616
:1008100058466744FFF756FF0021874206D8311C2F
:100820004B469943791888428041414201222B1C52
:1008300013405B0032401343012B3ED0002B5AD0B3
:10084000022B1CD12368019A5F007F08002A65D122
:10085000002906D0039A002A00D188E0002F00D199
:10086000AAE0002B65DB0137BF00E419BEE70023D7
:100870000293022E47DDFFF70BFE002849D0092026
:100880000BB03CBC90469946A246AB46F0BD6568AD
:100890000834B5E7022E9BDC1A0C1B0407930223D5
:1008A00006A90B73FD334A731A40019B9200A418EA
:1008B000022B00D090E7AC6B8EE7019B002B3AD166
:1008C000002916D02368DD0F63689A1CD7D04246F2
:1008D00058320692013300D1B5E0201DFFF7D0FD5C
:1008E00006AB011C2A1C404601F0DCFB002800D0AE
:1008F000BAE008347AE7019B002B02D0002900D02F
:100900008BE0043472E7584607A900F0E7FA0028A4
:10091000B5D1029B002B5DD10820B1E74346584674
:100920000D211D6AFFF7CEFE854263D02368002BA0
:1009300099DA043497E7434658460D211D6AFFF7BC
:10094000C1FE8542D5D143469B6A9C42D1D14546E2
:10095000201CFFF7BFFC0F21021C5846FFF7D8FEF2
:10096000584600212A1CFFF7D3FE072088E7002FF6
:1009700022D058235146434406AABA46251D0026D4
:10098000049405911F1C914603E00435261E56452C
:1009900014D0281C0697FFF773FD0022011C4B465C
:1009A0004046741C01F07EFB0028EED05746059BA4
:1009B000049C9A46BE42B9D1454601E04546049C96
:1009C00058460D21FFF77EFE069B28626B62AC62E3
:1009D000062055E70F215846FFF774FE0E21021C32
:1009E0005846FFF795FE58460F21274AFFF790FE1D
:1009F000072045E743469B6A9C4297D143464246BF
:100A00009F620023D36204331363231D536323685F
:100A1000002B23DB0123029325E7201CFFF75AFC60
:100A200045460434061CAC63404601F097FB0028A1
:100A300000D124E758460F21321CFFF769FE07203A
:100A40001EE7564615E758460D214546FFF73AFE84
:100A50002862069B6B62AC62062011E7381C0130ED
:100A600080004546201874E7071C0D21584645466E
:100A7000FFF728FE2862022FEBD1069BEB6243466C
:100A80002C336B62E7E7C046872C000808B50023CB
:100A9000FFF784FE08BDC04608B50123FFF77EFEC0
:100AA00008BDC04608B50223FFF778FE08BDC04662
:100AB000F0B5474680B4061CC2B0141C1D1C0129A9
:100AC00050D0002935D0032909D0042902D1002BA8
:100AD00000D18EE0022042B004BC9046F0BD032B52
:100AE000F8D11404150C240C6319102BF2D8082229
:100AF00003681A4200D005E120AF381C00F046F927
:100B0000B36BED0064009C461A1C7919631E002C1F
:100B100009D00A1C6546501A405901C2013BF9D25E
:100B2000A400221C6244B263381C00F02DF900209E
:100B3000D1E70220002BCED1002301271004B56B92
:100B4000000C321D391C9940084202D02968043536
:100B5000116001330432102BF4D10020A304BAD465
:100B6000B563B8E71404170C240C012B60D0052BD7
:100B7000B0D1E319202BADD80F2F69D9A046002C96
:100B800000D080E00023B16B9846002C22D0630097
:100B90009C465A1E20A8FB00C418231C181B08588A
:100BA00001C3013AFAD263469C0043460919002B5F
:100BB00010D0434658003B1E102B00D21023103B90
:100BC000DA0000236A448000CC58D45004338342B6
:100BD000FAD1C918012D00D189E0B1630F2F00D8D7
:100BE0008CE04346002BA2D0684600F0C9F80020F4
:100BF00071E7102A00D96DE7102203681A4261D10B
:100C000020AF381C00F0C6F800230120B16B021C95
:100C10009A40144203D00D689A00BD50043101334C
:100C2000042BF4D1381CB16300F0B2F8002052E775
:100C3000E319102B00D94DE70F2F00D94AE7002305
:100C40003268984615420DD120A800F093F899E734
:100C5000102B3ED9102252429046984433681A1CF9
:100C60000B4211D00123111C99430B1C3160052D3F
:100C70004FD00323301C9A433260483000F07AF89A
:100C80004346002B17D033685A074FD4012D55D057
:100C90000F2F02D820A800F071F84346002B00D196
:100CA00070E7684600F06EF81024B16BE41B002C6E
:100CB00000DD6CE77DE7012DC6D0002398460F2F9D
:100CC000E8D95FE793430360D130FF3000F062F86A
:100CD00096E732681142F0D00223301C8A431A434F
:100CE0003260483000F04AF800239846D2E70431D9
:100CF00020A8B16300F03CF80020ECE620A800F04A
:100D00003BF86EE7934303605130FF3000F03EF84C
:100D1000F2E60222301C13433360483000F02EF814
:100D20004346002BB6D033685A07B1D50422301C95
:100D300093433360D03000F025F8A7E720A800F0F7
:100D400019F8B1E7011C343138C9043B9C461D60D9
:100D5000A646011C20313CC990469946A246AB46A6
:100D6000011C0831FCC941680068E54600BDC04669
:100D70007047C0467047C0467047C0467047C0467F
:100D80007047C0467047C0467047C0467047C0466F
:100D90007047C0467047C04601B401A801B585B090
:100DA000FFB408A841464A4653465C4665463EC0E5
:100DB00001A83EC80F98009000230CB401A9FFF7CA
:100DC000F7FB109B12B0184701B401A801B585B01C
:100DD000FFB408A841464A4653465C4665463EC0B5
:100DE00001A83EC80F98009000230CB401A9FFF79A
:100DF00013FC109B12B0184701B401A801B585B0CF
:100E0000FFB408A841464A4653465C4665463EC084
:100E100001A83EC80F98009000230CB401A9FFF769
:100E20001FFC109B12B0184701B401A801B585B092
:100E3000FFB408A841464A4653465C4665463EC054
:100E400001A83EC80F98009000230CB401ABFFF737
:100E5000D9FB109B12B0184701B401A801B585B0A9
:100E6000FFB408A841464A4653465C4665463EC024
:100E700001A83EC80F98009000230CB401AAFFF708
:100E800055FC109B12B01847027A031C002A04D1AB
:100E9000427AB020002A07D17047013A02720068F6
:100EA00002021A60000EF7E7013A5A725A68111DE1
:100EB0001068032259601A72F2E7C04600B585B087
:100EC00003AB009300210C220023FFF7E1FB039802
:100ED00005B000BD08B5FFF7F1FF08BDF0B55646F7
:100EE0005F464D4644460023F0B487B003937F33FA
:100EF0009846703B9946083B071C0E1C9A46301CCE
:100F0000FFF7C2FF041EB02C00D1C6E0031C42460E
:100F10009343DBB2002B2AD0031C4A469343DBB237
:100F2000802B00D180E0902B41D0A02B4ED0B02B55
:100F300061D0C02B00D191E0031C52469343DBB239
:100F4000D02B0BD114408022013412032243381CD1
:100F500001210523FFF7ACFD0028D0D00924201C77
:100F600007B03CBC90469946A246AB46F0BDFF2573
:100F700083001D4005AB9B460093381C00230021D5
:100F80000D220435FFF784FB63060CD4059B9C46B9
:100F9000654405955B460093381C00210D22002313
:100FA000FFF79CFBABE7059B5D1B0595F2E7833BD9
:100FB00003400D2BD2D04A4605AD02400095381CA7
:100FC00000210023FFF764FB0095E5E7FF2352466D
:100FD0001B01191C824311410A1C1A40030702D548
:100FE0008023DB011A43381C00210023FFF760FD3A
:100FF0000028B3D183E7B12863D0B22876D0B328D4
:1010000000D1A2E0FC230340B42BA7D0534680229A
:101010001C40013412032243381C01210123FFF735
:1010200047FD00289AD16AE70402301CFFF72CFF25
:10103000802520432D02A84290D004010005020C17
:101040000021381C0023FFF733FD002800D085E77E
:101050002C4200D153E70123039350E7C62800D167
:101060007FE0C72800D190E0031C52469343DBB2D7
:10107000C02B00D19EE0C82800D1A2E0C92800D032
:101080006CE7301CFFF700FF4A464B46024098438E
:10109000C0B201320003024359E7039B0024002B36
:1010A00000D05CE705AD0095381C00210E22FFF74B
:1010B000EFFA0095381C00210F220023FFF70EFBEA
:1010C0004DE7301CFFF7E0FE021E00D146E7031C8F
:1010D00049468B43DBB2002B00D03FE7381C002190
:1010E000FFF7E6FC002800D038E708E705AB0D2243
:1010F000009300219B46381C0023FFF7C9FA301CDF
:10110000FFF7C2FE4246031C9343DBB2002B65D0BF
:10111000B03C43461840059BA0409C466044059067
:10112000301CFFF7B1FE4246031C9343DBB2073489
:10113000002BEED181229200944642461040A040FE
:10114000059B63441C18059424E7301CFFF79CFEA4
:101150004A464B4602409843C0B201320003024364
:101160005AE7301CFFF790FE4A464B460240984330
:10117000C0B2013200030243381C03210323FFF7EE
:1011800097FC002800D0E9E6B9E6301CFFF77CFEAA
:10119000021E00D1E2E6031C49468B43DBB2002B62
:1011A00000D0DBE6381C0421FFF782FC002800D0C9
:1011B000D4E6A4E64B46A0221C400134120322438D
:1011C000DAE7301CFFF760FE4B46021C9A43D2B2AE
:1011D00010321840120301300243B8E60224A9E796
:1011E000C26C10B5506884B00402101C0830029024
:1011F000032001AB1872D279081C191C01945A7291
:10120000FFF76CFE04B010BD08B5FFF763FE806CFD
:1012100008BDC04608B5FFF75DFEC36CD8798000F5
:101220000830181808BDC04608B501F06DFEC0466C
:1012300008B501F069FEC0467047C046FEE7C046EB
:101240007047C0467047C04608B500F099FB00F0F3
:1012500017FC08BD00B583B0124B9969012001430A
:1012600099619A6902400092009AD96980225205D8
:101270001143D961DB691A400192019B06380021B4
:10128000002200F09DFB022040420021002200F0DD
:1012900097FB012040420021002200F091FB03B0A7
:1012A00000BDC0460010024070B582B0041C036847
:1012B000DB0771D5B64B5B680C221340042B0AD0B8
:1012C000B34B5B681340082B07D1B14B5B68DB0362
:1012D00005D4002304E0012302E0002300E0012301
:1012E000002B0CD0AA4A1268920304D56268002A27
:1012F00002D0002300E00023002B4DD004E26368FD
:10130000012B06D1A24A1368802149020B431360C6
:1013100022E0002B09D19E4B19689E4A0A401A60B0
:1013200019689D4A0A401A6016E0052B0BD1984BAC
:101330001A688021C9020A431A601A68802149028A
:101340000A431A6008E0924B1968924A0A401A60F0
:101350001968914A0A401A606368002B0ED000F0A9
:1013600017FB051C05E000F013FB401B642800D9A7
:10137000CCE1874B1B689B03F5D50DE000F008FB23
:10138000051C05E000F004FB401B642800D9BFE108
:101390007F4B1B689B03F5D423689B075ED57C4B72
:1013A0005B680C221A420AD0794B5B681340082B09
:1013B00007D1774B5B68DB0305D5002304E00123ED
:1013C00002E0002300E00123002B15D0704A1268D0
:1013D000920704D5E268012A02D1002300E000232D
:1013E000002B00D096E16A490B68F82293432269EA
:1013F000D20013430B6031E0E368002B1BD0644A3A
:10140000116801230B43136000F0C2FA051C05E0CC
:1014100000F0BEFA401B022800D97DE15C4B1B683E
:101420009B07F5D55A490B68F82293432269D200ED
:1014300013430B6012E0564A136801218B4313607B
:1014400000F0A6FA051C05E000F0A2FA401B0228F5
:1014500000D963E14E4B1B689B07F5D423681B073B
:1014600029D5E369002B13D0494A516A01230B4364
:10147000536200F08DFA051C05E000F089FA401B6C
:10148000022800D94CE1424B5B6A9B07F5D512E07C
:101490003F4A536A01218B43536200F079FA051CDD
:1014A00005E000F075FA401B022800D93AE1384BFC
:1014B0005B6A9B07F5D423685B0700D484E0344B58
:1014C000DB69DB000BD4324AD16980235B05194309
:1014D000D161D26913400193019B012500E00025F1
:1014E0002E4B1B68DB0513D42C4A1368802149005E
:1014F0000B43136000F04CFA061C05E000F048FABC
:10150000801B642800D90FE1244B1B68DB05F5D54F
:10151000A368012B04D11E4A116A0B43136220E019
:10152000002B09D11A4B1A6A01218A431A621A6ADE
:1015300003318A431A6214E0052B09D1144B196A4E
:1015400004220A431A62196A01220A431A6208E055
:101550000F4B1A6A01218A431A621A6A03318A43BD
:101560001A62A368002B0FD000F012FA061C06E0E6
:1015700000F00EFA801B0A4B984200D9D6E0044BCB
:101580001B6A9B07F4D518E000F002FA061C10E075
:1015900000100240FFFFFEFFFFFFFBFF0070004056
:1015A0008813000000F0F4F9801B6A4B984200D9C0
:1015B000BEE0694B1B6A9B07F4D4012D04D1664A37
:1015C000D169664B0B40D3612368DB0648D563695C
:1015D000012B20D1604B596B04220A435A63596B8B
:1015E00001220A435A6300F0D3F9051C05E000F01C
:1015F000CFF9401B022800D99CE0574B5B6B9B073F
:10160000F5D555494B6BF82293431A1CA369DB00AF
:1016100013434B6324E005330CD14F494B6B042239
:1016200093434B634B6BF4329343A269D200134351
:101630004B6315E0484B596B04220A435A635A6BBB
:1016400001218A435A6300F0A3F9051C04E000F06D
:101650009FF9401B02286FD83F4B5B6B9B07F6D46A
:10166000236A002B6AD03C4A52680C210A40082A9F
:1016700066D0022B34D1384A1168394B0B401360C5
:1016800000F086F9051C04E000F082F9401B0228F6
:1016900058D8314B1B689B01F6D42F4BDA6A0F21C7
:1016A0008A43E16A0A43DA6258682E4A1040A26A05
:1016B000616A0A4302435A601A68802149040A4356
:1016C0001A6000F065F9041C04E000F061F9001BE9
:1016D000022839D8204B1B689B01F6D5002036E044
:1016E0001D4A11681E4B0B40136000F051F9041C99
:1016F00004E000F04DF9001B022827D8164B1B68A8
:101700009B01F6D4002022E0012020E003201EE00F
:1017100003201CE001201AE0032018E0032016E05B
:10172000032014E0032012E0032010E003200EE069
:1017300003200CE003200AE0032008E0002006E07C
:10174000012004E0032002E0032000E0032002B0B7
:1017500070BDC0468813000000100240FFFFFFEF7D
:10176000FFFFFFFEFFFFC2FF10B588B0144C6846B4
:10177000211C102200F05EFB211C103104A8102255
:1017800000F058FB0F4B5A680C231340082B13D161
:1017900093021B0F6946CC5C0A4BDB6A0F210B409E
:1017A00004A9C95CD30304D50748FEF701FD6043D3
:1017B00003E00648604300E0034808B010BDC0469F
:1017C000103000080010024000127A0000093D00AD
:1017D00070B5514B1B68012213408B420AD24E4A0E
:1017E00013680124A3430B431360136823409942F9
:1017F00000D080E003689B0706D5484A5368F02470
:10180000A3438468234353600C1C051C0368DB0757
:1018100047D54268012A04D1404B1B689B030BD477
:101820006BE0022A04D13D4B1B689B0104D466E0A7
:101830003A4B1B689B0764D538494B6803208343A8
:1018400013434B6000F0A4F8061C6B68012B0DD10C
:1018500005E000F09DF8801B314B984253D82F4B88
:101860005B680C221340042BF3D11AE0022B13D136
:1018700005E000F08DF8801B294B984245D8274B96
:101880005B680C221340082BF3D10AE000F080F8CB
:10189000831B234A93423AD8204B5B680C221A429E
:1018A000F4D11D4B1B68012213409C4209D21A4AF5
:1018B000136801218B432343136013680B409C4240
:1018C00027D12B685B0706D514494A68154B13408E
:1018D000EA6813434B60FFF747FF104B5B681B063A
:1018E0001B0F114AD35CD840104B1860002000F049
:1018F00025F800200EE001200CE001200AE0012084
:1019000008E0012006E0032004E0032002E00320B9
:1019100000E0012070BDC0460020024000100240DF
:1019200088130000FFF8FFFF30300008000000209F
:10193000014B18687047C0460000002010B5041C19
:10194000FFF7F6FFFA218900FEF732FC00F06AF893
:1019500001204042211C002200F032F8002010BD7E
:1019600008B5064A116810230B4313600020FFF7E7
:10197000E5FFFFF76FFC002008BDC04600200240D5
:10198000024A1368013313607047C0469400002078
:10199000014B18687047C0469400002030B583B0F2
:1019A0000190FFF7F5FF051C019C631C00D001347A
:1019B000FFF7EEFF401B8442FAD803B030BDC046AB
:1019C00070B5002816DAC0B20F230340083B9B080D
:1019D0009B00124A944663445A6803242040C00086
:1019E000FC34251C8540AA438901214081400A43DB
:1019F0005A6011E083080A4CC0339B001A59032532
:101A00002840C000FC352E1C8640B2438901294085
:101A10008140081C1043185170BDC04618ED00E00D
:101A200000E100E001380A4B98420FD8094A5060A3
:101A300009490B6A1B021B0AC020000603430B6204
:101A40000023936007331360002000E001207047FB
:101A5000FFFFFF0010E000E000ED00E0042805D1EA
:101A6000054A116804230B43136004E0024A13681B
:101A700004218B431360704710E000E07047C046BC
:101A800008B5FFF7FBFF08BD114B1A6801210A4397
:101A90001A6058680F4A02405A6018680E4A02409D
:101AA0001A6018680D4A02401A6058680C4A0240D1
:101AB0005A60DA6A0F208243DA62186B094A0240E0
:101AC0001A635A6B8A435A6300229A607047C04671
:101AD000001002400CB8FFF8FFFFF6FEFFFFFBFF0F
:101AE000FFFFC0FFACFEFFFF10B584B0002816D189
:101AF000083000F06BFA041C6846144901AA01F092
:101B00003FF8201C694600F071FF00980C3802A9CC
:101B100000F0BEFF201C0E490E4A00F0F7FE002A1E
:101B200003D143698B4343610EE04369194341612B
:101B30000AE000980C3803A900F0AAFFFFE7201C78
:101B400000F070FA00F08AFA04B010BD40300008CE
:101B5000303200089929000810B584B0002816D149
:101B6000083000F033FA041C6846154901AA01F058
:101B700007F8201C694600F039FF00980C3802A9CC
:101B800000F086FF201C0F490F4A00F0BFFE5200F4
:101B900092B20468012393401A1C224302604368F6
:101BA0008B4343600AE000980C3803A900F070FFF3
:101BB000FFE7201C00F036FA00F050FA04B010BD28
:101BC000403000083032000899290008FEE7C0467E
:101BD00000B591B002230493012207920F320892BC
:101BE0000C9300230D93A02292030E920F9304A84E
:101BF000FFF75AFB002803D01348E521FFF7E6FF63
:101C000007230093053B0193002302930393684647
:101C10000121FFF7DDFD002803D00B48F121FFF77C
:101C2000D5FFFFF785FEFA218900FEF7C1FAFFF71D
:101C3000F9FE0420FFF712FF01204042002100229C
:101C4000FFF7BEFE11B000BD5030000838B500F0FF
:101C500051F8FFF785FEFFF7BBFF104A536980215B
:101C600089020B4353619020C00508210322FFF72E
:101C700073FF96256D00281CFFF790FE9024E40565
:101C8000201C08210022FFF72FFF281CFFF786FEEB
:101C9000201C08210122FFF727FFEAE7001002407D
:101CA0000D4885460D480E490E4A002302E0D458DF
:101CB000C4500433C4188C42F9D30B4A0B4C002394
:101CC00001E013600432A242FBD3FFF7DDFE00F017
:101CD0008BF8FFF7BBFFFEE700200020000000208C
:101CE00074000020B436000878000020DC090020D1
:101CF000FEE70000F0B5204B85B00193032301AC53
:101D0000A360002301256360281C211CABBE061CB8
:101D1000194B1A4F01930323A3605B193E60636064
:101D2000281C211CABBE061C331C154E3360124B05
:101D300001930323A36005336360281C211CABBE01
:101D4000041C104A391C1460631C01D133681360F1
:101D5000002001240C4B6442C4500830A028F8D164
:101D60000968306819600021126859609860D9606C
:101D70001A61596105B0F0BD603000089C00002078
:101D800098000020A4000020A80000200120704737
:101D90000E4B10B51A68002A01D10D4A1A60694627
:101DA0001A681018884206D80A490B4C0968A142E3
:101DB00008D0884206D900F011F80C2303600120F6
:101DC000404201E01860101C10BDC046A000002079
:101DD000E009002004000020ADDEFECA014B1868B7
:101DE0007047C046680000200E4B70B500251E1CD1
:101DF0000D4CE41AA410A54204D0AB00F358984748
:101E00000135F8E701F0F8F8084B00251E1C084CD6
:101E1000E41AA410A54204D0AB00F358984701354A
:101E2000F8E770BDA4360008A4360008A436000800
:101E3000B0360008002310B5934203D0CC5CC454E4
:101E40000133F9E710BD031C8218934202D01970C8
:101E50000133FAE770470000032370B5CC1C9C43A4
:101E60000834051C0C2C01D20C2405E0002C03DAEC
:101E70000C2300202B6042E08C42F9D3204A1368E7
:101E8000101C191C002913D00A68121B0DD40B2A30
:101E900002D90A608B181FE08B4202D15A68026097
:101EA0001BE04A685A600B1C17E00B1C4968E9E705
:101EB000144E3368002B03D1281C00F025F8306045
:101EC000281C211C00F020F8031C421CD0D0032247
:101ED000C61C964386420AD11C60181C07210B3091
:101EE0001A1D8843821A0AD05142995007E0311ACC
:101EF000281C00F009F8431CBAD0331CECE770BD75
:101F00004C0100204801002038B50023064C051C78
:101F1000081C2360FFF73CFF431C03D12368002B00
:101F200000D02B6038BDC046D80900200023C25C19
:101F30000133002AFBD1581E7047000030B500293C
:101F40003ED004390B68002B00DAC9181D4A13680B
:101F5000141C002B02D14B60116031E099420DD26C
:101F600008680A189A4203D11368C3180B605368B3
:101F70004B60216024E08A4203D8131C5A68002A6F
:101F8000F9D11D685C198C420BD109686918581881
:101F90001960904214D110685268091819605A608B
:101FA0000EE08C4202D90C23036009E008680C188B
:101FB000944203D114685268001908604A6059605D
:101FC00030BDC0464C010020FEE7C04670B58030F1
:101FD000061C00F0A1FF041E18D1104A1368151C3E
:101FE0008022191C920096420ED80122114204D080
:101FF00001344908042CF8D106E0A24008481343F4
:1020000064022B60041901E000F0DEFD201C0021B9
:102010008022FFF718FF201C803070BD5001002087
:102020005801002008B50B4B98420ED380221201B4
:102030009A18904209D2C01A0123400A8340181C02
:10204000054A13688343136002E0803800F06EFF96
:1020500008BDC04658010020500100201EB400F009
:1020600099F81EBCFEF7B0FE0278031C0020472A38
:1020700016D15A784E2A13D19A78552A10D1DA7887
:10208000432A0DD11A79432A0AD15A792B2A07D12A
:102090009A792B2A04D1DB792A3A9A424041C0B27C
:1020A00070470000F0B585B001930378041C0F1C45
:1020B000C679472B14D143784E2B11D18378552BF9
:1020C0000ED1C378432B0BD10379462B08D143792A
:1020D0004F2B05D18379522B02D10120002E06D03F
:1020E000201CFFF7C1FF0123002801D0002000239E
:1020F0000022184D039290420FD1174D93420CD1FC
:10210000221C203A131C012E01D11368783B1D6854
:102110005834012E00D1146803942B68281C9B6846
:1021200098470124002803D0039B24191B680393BC
:102130003B68381C1E69291C012303AAB0470023F1
:10214000984203D0019B039A1A60231C181C05B007
:10215000F0BDC046E83000081C31000870B5061C10
:1021600000F03CFB341C051C301C203CFFF77CFFBE
:10217000002807D0E3690133E361012B08D1AB6884
:10218000A36104E0AB68002B01D000F01DFDAC6042
:10219000012070BD70B500F021FB8468051C002C87
:1021A00001D100F011FD261C2036301CFFF75CFF2A
:1021B000002808D0E369013BE361002B04D1A26948
:1021C000AA60A36100E0A860301C70BDF7B50027CD
:1021D000C6000191431C861B07217F2459435A1EC8
:1021E00012788C461440251CF41F6444A54052B25A
:1021F000181C2F430133002AEEDB019B1F60FEBD3C
:1022000000231A1C30B50130441E25787F242C4051
:10221000944023436CB20732002CF4DB1F2A05D80C
:102220006C0603D501246442944023430B6030BD07
:10223000F7B5051C0E1C141C1F1C502804D10323C9
:10224000D01C984308C84DE00F2028400C283BD8EC
:10225000FDF7A4FF1F07121F2C3A3A3A3A0C171F3A
:102260002C00101C01A9FFF7B1FF03E0101C01A90D
:10227000FFF7C6FF019B29E0637812781B02134326
:1022800005E0637812781B0213431B041B14A01C87
:102290001CE010785278A378120202431B04134307
:1022A0001A1CE378201D1B0613430FE010785278A8
:1022B000A378120202431B0413431A1C201CE37868
:1022C00008301B06134301E000F01EFE002B09D06E
:1022D00070222A40102A00D1261C6DB29B19002DB5
:1022E00000DA1B683B60FEBD08B5031EFF2B1BD048
:1022F0007022081C1340202B0ED004D8002B13D0C2
:10230000102B0FD110E0402B09D0502B0CD0302BCC
:1023100008D1FEF789FF08E0FEF78AFF05E0FEF727
:1023200073FF02E000F0F0FD002008BDF8B5071CC7
:102330000C1C081C391C161C1D1CFFF7D5FF321C79
:10234000011C2B1C201CFFF773FFF8BD73B5051C87
:102350000E1C141C002D01D0FEF756FF20603178B2
:10236000721CFF2905D0231D281CFFF7DFFF021C6C
:1023700000E060601378501C2375FF2B07D01023FA
:1023800001A92375FFF722FF019BC31800E000237A
:10239000E3600278431C6275181C01A9FFF716FF61
:1023A000019BC318236176BD1FB50A1C002103AB36
:1023B00000930B1CFEF76CF9039805B000BD0023D9
:1023C000F0B595B008930333041C0F1C0292034030
:1023D000012B11D0002B02D0022B03D0D8E0012317
:1023E000020715D5381C0299FEF7FAFE09240028C9
:1023F00000D07CE108247AE1030700D572E10D6A80
:1024000002980D21FFF7D0FF0623854200D069E135
:102410000826002126403343059309AB0093029818
:102420000B1C0C220997FEF759F9059B062B0AD1C4
:10243000FB6ABC6A04933B6B01250393002B00D11C
:10244000F7E00235F5E00298FEF7E4FE049000287C
:10245000C8D00EAC221C04990298FFF777FF0299AE
:10246000061C207DFFF740FF0F21A0600298FFF7B8
:102470009BFF01239843451E0EAC23699E4233D235
:10248000321C617D0AAB0020FFF750FF617D021C0A
:102490000BAB0020FFF74AFF0CAB021C617D002054
:1024A000FFF744FF0DA9FFF791FE0A9B0E9A061C49
:1024B0009B189D4201D22669DEE70B9A9B189D422C
:1024C000DAD200220C9B0392934202D066689B19D9
:1024D000039300200D9D854202D0129B013D5819A7
:1024E000039B002B04D17DE7002301250393FCE02F
:1024F000002800D1F8E00826059B1E4012D0472393
:102500003B7007337B700733BB70123BFB700333A8
:102510003B7109337B710333BB710023FB710023D3
:1025200006931BE03B1CFA795833012A01D1783B12
:102530001B680893F3E7022462431199181C079162
:102540008A1A0DAB1099FFF773FE0D99002954D02C
:10255000002F23D10C9C002C52D028190BA9FFF777
:102560004FFE0CA9051CFFF74BFE0B9A002A41D029
:102570001CDD0EAB1B7DFF2B0CD007201840042860
:1025800006D8FDF701FE0905D80903000824D3E7A2
:1025900000F0BAFC0024CFE70424CDE7381C002269
:1025A00008ABFFF77FFD002827D1D3E7119B01324D
:1025B000002F16D0002E14D1089992000A919C1A6F
:1025C000216800290AD06118381C00220AABFFF7E5
:1025D00069FD002801D10434F2E7012101235940AB
:1025E00004E0920052429B5859425941C9B2002915
:1025F000B0D002E001230693ACE70B9C032504E076
:10260000069B002B00D1EDE60225059BDB0710D5CC
:10261000022D00D1E6E602980D21089DFFF7C4FEC9
:10262000049BBC62FB62039B38627D623B630624B1
:102630005DE00826059B3340059307D0012D01D1AD
:1026400000F0C2FA002C23DA00F0CAFA012D02D100
:10265000381C00F008FB002C1ADA0EAE321C04996C
:102660000298FFF773FE307D0299FFF73DFEF26896
:10267000631CB0609B00059ED31AB2009A58002AD2
:1026800001D00136F9E70432BE62F8623A637B6337
:1026900000210BAB0A1C009302980B1C01260B9720
:1026A000FEF71CF800210CAB321C009302980B1CA7
:1026B0000C94FEF713F80F210298FFF775FE002126
:1026C000039B06401E430DAB009302980F220B1C88
:1026D0000D960724FEF702F8022D08D1381CFFF7EB
:1026E0003DFD04E0022393E6022500248DE7201C33
:1026F00015B0F0BD70477FB500246B461C711023E8
:1027000002930368151C9E6912686B46009403943B
:10271000B0476B461A790623201C1340062B02D1C2
:10272000009B01302B6004B070BD009B06209342DB
:1027300000D005387047000010B5041C034B083367
:10274000036000F0FBFA201C10BDC04638310008C1
:1027500010B5041CFFF7F0FF201C00F02CFA201C21
:1027600010BD38B5151C1C1C00F0EDFA002804D073
:102770000823E360023B2560237138BDF8B5051CD2
:102780000C1C161C1F1C00F0DEFA002807D1032FBA
:1027900005D82368201C5B69291C321C9847F8BDAA
:1027A000F8B5141C1F1C089A069B051C099E934231
:1027B00004D1079900F0C7FA00280BD1281C391C56
:1027C00000F0C1FA002806D0069B34713360012363
:1027D000B37100E074710020F8BD0000004870473C
:1027E0005809002010B5041C034B08330360FFF7A1
:1027F000A3FF201C10BDC0469831000810B5041C72
:10280000FFF7F0FF201C00F0D6F9201C10BDF7B533
:102810001D1C089B061C0F1C141C934206D1291C6E
:1028200000F091FA002801D0062008E0B068089A6C
:10283000036800921E6A391C221C2B1CB047FEBD87
:10284000F0B50C1C87B0191C0593071C04920F9E51
:1028500000F079FA0C9B051E15D033606B461B7C8B
:102860003371002C09DB0C9B0E9A1C190623A24223
:1028700000D0053BB371002521E00025A31C1ED12B
:102880000123B3711BE00E9A934205D1381C0D99B8
:1028900000F059FA00280FD1B8680C9A036800922A
:1028A0000D9A039601920E9A211C0292DD69049AF8
:1028B000059BA847051C02E06B461B7C7371281C16
:1028C00007B0F0BDF8B5071C0E1C151C1C1CFFF74B
:1028D00048FF002806D1B868311C03682A1C9F698C
:1028E000231CB847F8BD0B1C10B5283B012802D9A2
:1028F000586900F064F9DB6858310C1C002B01D0DA
:10290000081C9847201CFFF78DFB10BDF8B5041C70
:102910000F1C161CFFF762FF4368251C0133436040
:102920000123803D2B60EE60AF6000F067F9261C4C
:10293000286100F05DF94723583E68613370231C1D
:102940004E22573B1A7007325A70221C4323553AC5
:1029500013705370183B9370D3700023513C237055
:10296000044B301C2B63FEF717FA301C00F0BFF944
:1029700000F02AF9E72800084068704710B5041CE9
:10298000044B083308C000F091F8201CFFF7B2FE9A
:10299000201C10BD4032000810B5041C034B083346
:1029A0000360FFF7EBFF201C10BDC0465832000843
:1029B00010B5041CFFF7F0FF201C00F0FCF8201CF1
:1029C00010BD10B5041CFFF7D9FF201C00F0F3F870
:1029D000201C10BD10B5041C034B083308C000F0C8
:1029E0009EF8201C10BDC0464032000810B5041CE3
:1029F000FFF7F0FF024B201C0833236010BDC046D8
:102A00005832000808B5012A02D10B78037001E0A2
:102A1000FFF710FA08BD08B5521AFFF7F3FF08BD1B
:102A2000044B984204D000230160411883600B736B
:102A30007047C04664090020134A38B5041E94420A
:102A400002D9124800F0B4F8884203D94B009842EA
:102A500000D21C1C231C201C80251D330D306D0151
:102A6000AB420AD98C4208D91B0564191B0DE41A24
:102A7000944200D9044C201C0D3000F0C5F800230E
:102A80004460836038BDC046FCFFFF3F143300083C
:102A900008B5054B984206D083685A1E8260002B09
:102AA00001DC00F088F808BD6409002013B5041C9F
:102AB000006801A90C38FFF7EBFF201C16BD0000D1
:102AC000034B984202D08368013383600C30704717
:102AD0006409002070B50B1C041C016850181A1CF6
:102AE0006168FFF7A9FF051C2268061C0C35002A47
:102AF00004D0211C281C0C31FFF784FF301C2168F6
:102B0000FFF78EFF281C70BD08B58368002B02DB21
:102B1000FFF7D6FF02E00022FFF7DCFF08BD13B588
:102B2000041C086801AA69460C38FFF7EDFF206015
:102B3000201C16BDF7B5884201D10F4E19E00C1CC0
:102B4000051E04D1002C02D00C4800F02EF8631BA7
:102B5000181C00210193FFF76FFF061C071C0C36A1
:102B6000301C291C221CFFF756FF381C0199FFF767
:102B700057FF301CFEBDC04670090020C733000857
:102B800070B5051C0C1C161C002904D0081CFFF78E
:102B9000CDF9211801E001214942321C201C0023FB
:102BA000FFF7C8FF2860281C70BD08B500F0ACF91D
:102BB00008B500F0A9F908B500F0B8F908BD08B5E6
:102BC000804700F0A1F9000008B5024B1868FFF734
:102BD000F6FFC0467000002008B58047FFF7F4FFFD
:102BE00008B5024B1868FFF7F7FFC0466C000020DD
:102BF000014B18687047C04670000020014B1868F0
:102C00007047C0466C00002010B5041E02D101348C
:102C100000E08047201C00F07FF9002805D100F07B
:102C2000A9F80028F5D100F06FF910BD0278031C57
:102C30000020472A16D15A784E2A13D19A78552A5D
:102C400010D1DA78432A0DD11A79432A0AD15A7958
:102C50002B2A07D19A792B2A04D1DB792A3A9A4276
:102C60004041C0B2704710B5041E0AD000F03FF8D2
:102C7000201CFFF7DBFF002803D0203CE068FFF7B3
:102C80009EFFFFF7A1FF70B5051CFFF7CFFF0028DF
:102C900004D02B1C203B9C68002601E0041C01266C
:102CA000281C00F024F8002E01D0FFF799FF201C0B
:102CB000FFF792FF0278031C0020472A16D15A78AA
:102CC0004E2A13D19A78552A10D1DA78432A0DD199
:102CD0001A79432A0AD15A792B2A07D19A792B2AB1
:102CE00004D1DB792A3A9A424041C0B27047F8B524
:102CF000061CFFF773FD351C071C0468301C203DC3
:102D0000FFF7D8FF002805D1002C01D0FFF75CFFAA
:102D10003D6011E06A69531C002A01DA01239B1A05
:102D20006B617B68013B7B60A54201D02C613D60FB
:102D3000301C746AFDF7A2FC201CF8BD704700200F
:102D400070470020704708B5012381420FD04068CA
:102D5000002302782A2A0AD049680B782A3B5A4273
:102D60005341C918FDF706FA43424341DBB2181C30
:102D700008BD0000014B18687047C0467409002068
:102D80000123244A1168194200D11360224A1168B4
:102D9000194201D1012313600123204A116819420D
:102DA00000D113601E4A1168194201D1012313603A
:102DB00001231C4A1168194200D113601A4A116894
:102DC000194201D1012313600123184A11681942E5
:102DD00000D11360164A1168194201D10123136012
:102DE0000123144A1168194200D11360124A116874
:102DF000194201D1012313600123104A11681942BD
:102E000000D113600E4A1168194201D101231360E9
:102E10007047C046A4090020A00900209C0900209A
:102E20009809002094090020900900208C090020B6
:102E30008809002084090020800900207C090020E6
:102E4000780900200123244A1168194200D1136037
:102E5000224A1168194201D1012313600123204A3B
:102E60001168194200D113601E4A1168194201D13C
:102E70000123136001231C4A1168194200D1136019
:102E80001A4A1168194201D1012313600123184A1B
:102E90001168194200D11360164A1168194201D114
:102EA000012313600123144A1168194200D11360F1
:102EB000124A1168194201D1012313600123104AFB
:102EC0001168194200D113600E4A1168194201D1EC
:102ED000012313607047C046D4090020D0090020A8
:102EE000CC090020C8090020C4090020C009002026
:102EF000BC090020B8090020B4090020B009002056
:102F0000AC090020A809002008B5062000F042F80E
:102F10000120FFF759F8000008B5034B011C1868A1
:102F2000FEF79AFF08BDC0466800002008B5034BB5
:102F3000011C1868FFF702F808BDC04668000020B1
:102F400038B51F2904D9162303600120404220E030
:102F5000426C0D1C041C002A04D08B00D21813688C
:102F6000002B08D1201C00F031F82A1C011C201C69
:102F700000F01AF80DE00020012B0AD0591C03D1F3
:102F800017332360013004E00024281C14609847A4
:102F9000201C38BD08B5034B011C1868FFF7D0FF93
:102FA00008BDC0466800002038B50023064C051C4B
:102FB000081C111C236000F00DF8431C03D123688A
:102FC000002B00D02B6038BDD809002008B5FEF7D3
:102FD000DDFE08BD30B51824062901D1044D00E0FE
:102FE000044D201C291CABBE041C201C30BDC04657
:102FF0002300020026000200F8B5C046F8BC08BC59
:103000009E467047F8B5C046F8BC08BC9E4670475F
:1030100002030405060708090A0B0C0D0E0F101019
:103020000102030405060708090A0B0C0D0E0F1018
:103030000000000000000000010203040607080968
:103040004750494F78206973204E554C4C00000082
:103050005372632F6D61696E2E6370700000000003
:103060003A7474000000000000000000000000003E
:103070000000000000000000000000000000000050
:103080000000000000000000000000000000000040
:103090000000000000000000000000000000000030
:1030A0000000000000000000000000000000000020
:1030B0000000000000000000000000000000000010
:1030C0000000000043004E31305F5F63787861623A
:1030D00069763131355F5F666F726365645F756E07
:1030E00077696E644500000040310008C630000872
:1030F0004E31305F5F637878616269763131395F74
:103100005F666F726569676E5F6578636570746925
:103110006F6E45004031000824310008403100083E
:10312000F0300008537439657863657074696F6EA8
:1031300000000000000000000000000068310008EE
:1031400039270008512700083F2D0008432D0008AB
:103150007D270008F726000863270008A12700083C
:103160002B27000800000000A0310008743100087F
:10317000243400084E31305F5F637878616269768D
:103180003131375F5F636C6173735F747970655F52
:10319000696E666F4500000000000000C83100083D
:1031A000E5270008FD2700083F2D0008432D0008F3
:1031B0007D270008F7260008C528000841280008D8
:1031C0000F28000800000000A0310008D4310008DA
:1031D000683100084E31305F5F63787861626976EC
:1031E0003132305F5F73695F636C6173735F7479F1
:1031F00070655F696E666F4500000000A0310008D1
:103200001D3200081431000853743136696E76613E
:103210006C69645F617267756D656E7400537431BB
:10322000316C6F6769635F6572726F7200000000D6
:10323000A031000808320008FC310008000000003E
:1032400000000000FC3100087D290008C3290008A7
:10325000792900080000000000000000303200085A
:1032600099290008B1290008792900080000000008
:1032700025733A205F5F706F7320287768696368F1
:1032800020697320257A7529203E20746869732D82
:103290003E73697A65282920287768696368206900
:1032A0007320257A75290062617369635F73747294
:1032B000696E673A3A61743A205F5F6E20287768DA
:1032C00069636820697320257A7529203E3D207442
:1032D0006869732D3E73697A6528292028776869A3
:1032E000636820697320257A7529006261736963B8
:1032F0005F737472696E673A3A636F7079006261E6
:103300007369635F737472696E673A3A636F6D7065
:103310006172650062617369635F737472696E677D
:103320003A3A5F535F637265617465006261736905
:10333000635F737472696E673A3A657261736500B0
:1033400062617369635F737472696E673A3A5F4D65
:103350005F7265706C6163655F617578006261734F
:1033600069635F737472696E673A3A696E73657206
:10337000740062617369635F737472696E673A3A6D
:103380007265706C6163650062617369635F737419
:1033900072696E673A3A61737369676E006261734E
:1033A00069635F737472696E673A3A617070656ED3
:1033B000640062617369635F737472696E673A3A3D
:1033C000726573697A650062617369635F737472B1
:1033D000696E673A3A5F535F636F6E7374727563B9
:1033E00074206E756C6C206E6F742076616C6964ED
:1033F0000062617369635F737472696E673A3A62FF
:10340000617369635F737472696E67006261736987
:10341000635F737472696E673A3A7375627374723C
:1034200000000000403100082C3400085374397447
:0C3430007970655F696E666F0000000037
:10343C0008B10181B0B000840000000008B1018126
:10344C00B0B000840000000008B10181B0B000846D
:10345C00000000005FEFFF7FB0A80300FFFF010C2E
:10346C00160456001E044A00322E000047EFFF7F60
:10347C00B0A80300FFFF010C16045A001E044E00F6
:10348C003232000074B20181B0AB30800000000019
:10349C0008B10181B0B000840000000008B10181C6
:1034AC00B0B000840000000008B10181B0B000840D
:1034BC0000000000800A0181B0B0ABF000000000F9
:1034CC0008B10181B0B000840000000008B1018196
:1034DC00B0B000840000000008B10181B0B00084DD
:1034EC00000000003F010181B0AB10800000000023
:1034FC0008B10181B0B00084000000008006018199
:10350C00B0B0ABF00000000008B10181B0B0008495
:10351C000000000008B10181B0B000840000000080
:10352C00A8CDFF7F0100000058CEFF7FB0A902801C
:10353C00ECCEFF7FB0B0A8803CCFFF7F0100000035
:10354C004CCFFF7FA908B18080CFFF7F38FFFF7F72
:10355C0050D0FF7F010000004CD0FF7FAA3F398084
:10356C0098D0FF7F2CFFFF7FA4D0FF7FA908B180EC
:10357C00E4D0FF7F28FFFF7FF8D0FF7F0100000021
:10358C00F4D0FF7F24FFFF7FFCD0FF7F0100000001
:10359C0090D1FF7FAA0FB280F8D1FF7F18FFFF7F79
:1035AC00E0D4FF7F1CFFFF7FE4D4FF7F20FFFF7F71
:1035BC00E8D4FF7F24FFFF7FECD4FF7F28FFFF7F41
:1035CC0078D7FF7F01000000E8D8FF7F00840480DB
:1035DC00F8D8FF7F1CFFFF7FF8D8FF7F20FFFF7F0D
:1035EC00F4DBFF7FB0A8038014DCFF7F1CFFFF7FA0
:1035FC0018DCFF7F20FFFF7F24DCFF7F0100000031
:10360C003CDCFF7F2CFEFF7F40DCFF7F00840280D0
:10361C008CDCFF7FB0AA018044E1FF7F0100000039
:10362C00A4E1FF7FB0B0AA80FCE2FF7F01000000A4
:10363C0000E3FF7FB0B0A8801CE3FF7F00FEFF7F9C
:10364C0034E3FF7F0100000048E3FF7FB0A9028054
:10365C0064E3FF7F010000001CE4FF7FECFDFF7FB3
:10366C001CE4FF7F0100000074E4FF7FE8FDFF7F96
:10367C00DCE4FF7FF8FDFF7F48E5FF7F01000000E1
:10368C0044E5FF7F00841080B8E5FF7FA908B18076
:08369C0004E6FF7F01000000BD
:0C36A40039010008812D0008452E0008A7
:0436B0000D01000800
:1036B40000127A00ADDEFECA00000000643000088B
:1036C40084300008A430000800000000000000005E
:1036D4000000000000000000C430000800000000EA
:1036E40000000000000000000000000000000000D6
:1036F40000000000000000000000000000000000C6
:1037040000000000000000000000000000000000B5
:10371400000000000000000008000020C92B000881
:04372400092F000861
:0400000508001CA132
:00000001FF
