:020000040800F2
:1000000000200020FD3C0008493100084D31000867
:1000100000000000000000000000000000000000E0
:100020000000000000000000000000005131000846
:1000300000000000000000005531000859310008A0
:100040004D3D00084D3D00084D3D00084D3D000868
:100050004D3D00084D3D00084D3D00084D3D000858
:100060004D3D00084D3D00084D3D00084D3D000848
:100070004D3D00084D3D00084D3D00084D3D000838
:100080004D3D00084D3D0008000000004D3D0008BA
:100090004D3D00084D3D00084D3D00084D3D000818
:1000A0004D3D00084D3D00084D3D00084D3D000808
:1000B0004D3D0008000000004D3D0008000000001C
:1000C00008B5054B054803331B1A062B03D9044B0F
:1000D000002B00D0984708BDA8000020A8000020F1
:1000E000000000000648074908B5091A8910CB0F1F
:1000F0005918491003D0044B002B00D0984708BD75
:10010000A8000020A80000200000000010B5074C47
:100110002378002B09D1FFF7D3FF054B002B02D02A
:10012000044800E000BF0123237010BDA800002098
:10013000000000001074000808B5094B002B03D024
:100140000848094900E000BF08480368002B02D1B5
:10015000FFF7C8FF08BD064B002BF9D09847F7E71B
:100160000000000010740008AC000020A80000206F
:100170000000000002780B78002A03D00130013122
:100180009A42F7D0D01A704702B471464908490024
:10019000095649008E4402BC7047C04602B47146FD
:1001A00049084900095C49008E4402BC7047C046BA
:1001B000002243088B4274D303098B425FD3030AA6
:1001C0008B4244D3030B8B4228D3030C8B420DD3B9
:1001D000FF22090212BA030C8B4202D31212090247
:1001E00065D0030B8B4219D300E0090AC30B8B4285
:1001F00001D3CB03C01A5241830B8B4201D38B0333
:10020000C01A5241430B8B4201D34B03C01A5241D7
:10021000030B8B4201D30B03C01A5241C30A8B421A
:1002200001D3CB02C01A5241830A8B4201D38B0205
:10023000C01A5241430A8B4201D34B02C01A5241A9
:10024000030A8B4201D30B02C01A5241CDD2C3091B
:100250008B4201D3CB01C01A524183098B4201D397
:100260008B01C01A524143098B4201D34B01C01A82
:10027000524103098B4201D30B01C01A5241C308FA
:100280008B4201D3CB00C01A524183088B4201D369
:100290008B00C01A524143088B4201D34B00C01A55
:1002A0005241411A00D20146524110467047FFE7C1
:1002B00001B5002000F0FCF802BDC0460029F7D0CF
:1002C00003B5FFF775FF0EBC4243891A1847C046B5
:1002D00003460B437FD4002243088B4274D30309A7
:1002E0008B425FD3030A8B4244D3030B8B4228D348
:1002F000030C8B420DD3FF22090212BA030C8B426E
:1003000002D31212090265D0030B8B4219D300E00D
:10031000090AC30B8B4201D3CB03C01A5241830B92
:100320008B4201D38B03C01A5241430B8B4201D342
:100330004B03C01A5241030B8B4201D30B03C01A6B
:100340005241C30A8B4201D3CB02C01A5241830AE5
:100350008B4201D38B02C01A5241430A8B4201D314
:100360004B02C01A5241030A8B4201D30B02C01A3E
:100370005241CDD2C3098B4201D3CB01C01A5241A5
:1003800083098B4201D38B01C01A524143098B422E
:1003900001D34B01C01A524103098B4201D30B0117
:1003A000C01A5241C3088B4201D3CB00C01A52413C
:1003B00083088B4201D38B00C01A524143088B4201
:1003C00001D34B00C01A5241411A00D2014652419A
:1003D000104670475DE0CA0F00D04942031000D3B9
:1003E0004042534000229C4603098B422DD3030A0E
:1003F0008B4212D3FC22890112BA030A8B420CD31E
:10040000890192118B4208D3890192118B4204D346
:1004100089013AD0921100E08909C3098B4201D3C6
:10042000CB01C01A524183098B4201D38B01C01A00
:10043000524143098B4201D34B01C01A5241030977
:100440008B4201D30B01C01A5241C3088B4201D326
:10045000CB00C01A524183088B4201D38B00C01AD3
:100460005241D9D243088B4201D34B00C01A5241AA
:10047000411A00D20146634652415B10104601D337
:100480004042002B00D54942704763465B1000D3C1
:10049000404201B5002000F00BF802BD0029F8D061
:1004A00003B5FFF715FF0EBC4243891A1847C04633
:1004B0007047C0468446101C62468C46191C634631
:1004C00000E0C0461FB500F051FF002801D4002114
:1004D000C8421FBD10B500F095FE4042013010BD6E
:1004E00010B500F043FF002801DB002010BD012003
:1004F00010BDC04610B500F039FF002801DD002016
:1005000010BD012010BDC04610B500F0BFFE002890
:1005100001DC002010BD012010BDC04610B500F068
:10052000B5FE002801DA002010BD012010BDC04634
:1005300038B500220C4B041C0D1CFFF7EFFF002800
:1005400004D1201C291C01F08BFD38BD064B002274
:10055000201C291C01F00AFA01F082FD80231B06F1
:100560009C466044F1E7C0460000E041F0B54546D6
:1005700057464E4694464C000A03C90FE0B48846DD
:100580000E1C1903470FC500480A6146490F014375
:100590006046520A1743C0005A00640D520DDB0F2B
:1005A0008446984500D1A7E0A01A002800DC01E1AC
:1005B000002A3DD163460B4300D0D4E06B0700D145
:1005C00088E00F232B40042B00D183E02A1DAA4290
:1005D000AD4180236D427F191B043B404646151CEC
:1005E000002B00D17CE0CC4B01349C4200D1FDE0DB
:1005F0003A1CCA4BED081A405007640552020543E5
:10060000120B640D002112030B0D1B056405120B68
:100610001A436308C24CF60714401C436400640884
:100620003443281C211C1CBC90469946A246F0BDB0
:10063000B94B9C42C2D080231B041943382800DDEB
:10064000ECE01F2800DD21E120220E1C6346121A77
:100650009640C340334366469640321C561EB24114
:1006600013430A1CC240EB1A9D42B6411D1CBA1A24
:100670007642971B3B0200D497E07A02560A002E7E
:1006800000D1B6E0301C02F041FD031C083B1F2BDB
:1006900000DDB7E09E40371C28262A1C361AF2409F
:1006A000161C9D403E439C4200DDB2E01C1B621CB8
:1006B0001F2A00DDD8E01F23291C1C1B331CA5406A
:1006C000A340D1406C1EA541D64019430D43371CB1
:1006D000002473E780231B043B40464600D082E79A
:1006E0008D4BED0878070543FA089C4232D012037F
:1006F0006405120B640D85E7A31A002B00DC94E05F
:10070000002A3CD0844A944200D157E78022120448
:100710001143382B00DC05E163461943481E814133
:100720000022C8B24019A8429B41051CD2195B4265
:10073000D7183B0239D5784B01349C4200D14CE1AB
:100740000120764A6B083A4028401843D5070543F4
:10075000570833E72B1C134348D080231B031A434D
:100760001203120B4EE70138002878D16346EE1AC7
:10077000B5429B417A1A5B42D71A351C7AE7021CB4
:100780000A4300D11AE7013B002B00D0F2E04019E8
:10079000A8429B41CA195B42D718051CC9E7131C24
:1007A000334300D118E1171C351C46466B0700D0B7
:1007B00007E795E700287AD1621C5205520D012AFD
:1007C00000DCFBE06246AA1A9542B6419146781ACF
:1007D0007242861A320200D493E06246551BAC4541
:1007E0008041CF1B40423E1A984648E70022002530
:1007F00008E7281C02F08AFC2030031C083B1F2B52
:1008000000DC47E7283885402E1C00259C4200DC90
:100810004CE7424AE41A1640371CCFE663461943B8
:100820004B1E99410022CBB21DE7002B00D0F2E015
:10083000601C43055B0D012B00DCA4E0364B9842A5
:1008400000D121E163465C19AC429B41CF195B4268
:10085000FA186408D50725435708041CAEE62E4B4A
:100860009C4200D0EAE6A9E6211C331C1F39CB408C
:10087000191C202A00D182E03F231C1BA6403543CF
:100880006E1EB54100270D4300248EE7031C0E1C8D
:10089000203BDE40202874D040231B1A99400B1CBB
:1008A00062461343591E8B4100223343DBE6002C82
:1008B00050D0194CA24200D1A8E080242404404228
:1008C0002743382800DDD9E01F2800DD39E1202446
:1008D0003E1C241AA640B0462E1CA146C6404446E3
:1008E00026434C46A5406C1EA541C7403543604693
:1008F000451BCF1BAC45894149427F1A141C9846C1
:10090000B8E64B464D46334300D0B8E600260027F4
:1009100000240025E4E6C046FF070000FFFF7FFF3C
:10092000FFFF0F801F2B5BDC2022081CD21A904097
:10093000814660469246D8404A4610438146524618
:1009400060469040021C501E8241484610430A1CDB
:10095000DA40E7E63C1C2C4358D0C043002851D174
:100960006046451BAC458041CF1B40423F1A141CDA
:1009700098467FE68F4A944200D0CAE61EE60026DB
:100980007DE700238CE73B1C2B43002C00D0BDE00F
:10099000002B00D1F5E063460B4300D10EE6634621
:1009A0005B19AB428041CA19404217183A0200D481
:1009B000FCE0814A1D1C17400134FFE53A1C2A4324
:1009C000002C51D1002A00D085E062460A4303D0B2
:1009D0000F1C65469846F1E50026002700257FE6B6
:1009E000181C0A1C2038C240202B00D1A7E0402050
:1009F000C01A8140081C63461843411E88411043B9
:100A000000228FE66B4CA24200D05AE70F1C6546CD
:100A1000141C9846D2E5002C3AD1381C284371D0DA
:100A2000DB43002B18D0634882426BD0382B00DDAB
:100A30009DE01F2B00DDA7E020203C1CC01A844055
:100A4000A1462C1C8246DC40484604435046854063
:100A5000681E8541DF402543654465459B417F18FD
:100A60005B42FF18141C64E6002A19D162460A434F
:100A700077D00F1C654698464E4C9FE53D436F1E50
:100A8000BD410027EDB232E7041C0027002527E610
:100A90004848824236D0802000045B420743C5E7C5
:100AA00062460A4349D08024ED087807FA082403F7
:100AB0002843224209D0CE08264206D162464F077B
:100AC000381CD20810439846321CD200470F1743F7
:100AD000C500384C72E562460A4300D16EE56246B5
:100AE000AE1AB5429241781A5242821A100200D4CC
:100AF00055E66246551BAC458041CA1B4042171A59
:100B000098465BE50F1C6546141C57E5002B34D056
:100B100063460B4311D08024ED087807FA082403BC
:100B200028432242D1D0CB082342CED162464F0780
:100B3000381CD20810431A1CC7E71E4C3EE50020A3
:100B400059E7041C3E1C203CE640341C20282BD0D6
:100B50004026301A87403D436F1EBD410027254384
:100B6000C5E680270026FF03124C0025B8E53D436B
:100B70006F1EBD410027EDB26EE70F1C65460D4CA0
:100B80001CE50F1C654619E51C1C381C203CE04088
:100B9000041C202B0CD04020C31A9F403D436F1EE5
:100BA000BD410027254357E70027D4E71D1CFCE57E
:100BB0000027F3E7FF070000FFFF7FFFF0B55F4668
:100BC00056464D464446F0B40F0387B098464D0054
:100BD0003B0BCC0F061C924681469B466D0D019443
:100BE0006BD0664B9D4235D080275B467F031F4309
:100BF000F3009946624BFF00400F9C4607430023D9
:100C0000BB46002665440093424617035000D20FAE
:100C100053463F0B400D904600D172E0574A904238
:100C200067D080235B031F435346554A5B0FFF0089
:100C30001F43944653460021DB0060444246624015
:100C400092462D1A0E430F2E00D9A1E04D48B60052
:100C5000805987465B461E4300D076E000239B46C2
:100C60009946023308260093CEE799464346BB4691
:100C700001930091009B022B6BD1019B9A460021AE
:100C800053460122002789461A403C4B00213F036E
:100C90000C0D24053F0B27433B4C1B0527401F43EE
:100CA0007F00D2077F0817434846391C07B03CBC79
:100CB00090469946A246AB46F0BD03433ED05B4604
:100CC000002B00D19CE1584602F020FA2823311C69
:100CD0001B1A021C5F46D940083A97400B1C9640ED
:100CE0003B439B46B1460023284D00262D1A009316
:100CF0008AE7524603213A43A0D10027002302216C
:100D00009CE752463A4315D0002F00D185E1381CAC
:100D100002F0FCF9021C28215046891A131CC84015
:100D20005146083B99409F400B1C07431748002140
:100D3000801A83E70027002301217FE700239B46D9
:100D400099460133042600935EE703230C260093A3
:100D50005AE7032B00D13CE2012B00D0BFE11A1C63
:100D6000019B1A4000210023002789468EE70023BB
:100D70008027994600223F03004B87E7FF070000CA
:100D800001FCFFFF28740008FFFF0F800DFCFFFF30
:100D9000BB4500D951E100D14CE14A460392002203
:100DA0005C469046013D180E3F0238431B020193FA
:100DB000030C994603041B0C4946061C201C1F1CEF
:100DC0000093FFF7F5F9021C7A4302904946201C74
:100DD000171CFFF773FA039B09041B0C19438F427E
:100DE0000CD9029B8919013B8E4200D952E18F42F6
:100DF00000D84FE1029B8919023B0293CC1B201CB7
:100E00004946FFF7D5F9009F834647434946201CD2
:100E1000FFF754FA039A0B041404240C23439F4253
:100E20000DD95A469B19013A9E4200D930E19F42A2
:100E300000D82DE10222524294469B19E344029AC3
:100E4000DB1B17045A463A439346019C170C220CAD
:100E5000101C04925A4611042204120C141C090C92
:100E60007C4305924A43414347436118100C0918DB
:100E70008C4203D980204002844667440C0C120443
:100E80000804120C3C198118A34200D2E5E000D1FD
:100E9000DFE01F1B43465C1AA04592415242BF1A35
:100EA000B74200D10EE1381C4946FFF781F9009B9B
:100EB000029043434946381C9846FFF7FFF9230C3C
:100EC0000F041F43B8450CD9029BBF19013BBE421A
:100ED00000D9FBE0B84500D8F8E0029BBF19023BFF
:100EE00002934346FF1A4946381CFFF761F9009BFD
:100EF000039043434946381C9846FFF7DFF9240422
:100F00000904240C214388450CD9039B8919013B12
:100F10008E4200D9DCE0884500D8D9E0039B8919CE
:100F2000023B03934346C91A029B039A1B04059C88
:100F30001A43100C13049146221C049F1B0C5A43A5
:100F400044437B437843E318170CDB199C4203D9D5
:100F500080246402A44660441C0C12041B04120C7E
:100F600000199B18814200D296E000D1FCE04A466D
:100F700001231A4391469B4BEB18002B00DC99E0B0
:100F80004A4652070AD00F2249460A40042A05D091
:100F90000431494592418946524293445A46D2010E
:100FA00006D55A46904B1A4080239346DB00EB1837
:100FB0008E4A934200DD62E64A465946D208490706
:100FC00011435A4689465702514601225B053F0BA1
:100FD0005B0D0A405AE680205A460003024208D0C0
:100FE000074206D107433F0399463F0B4246804BD9
:100FF0004CE65F4607433F033F0B221C7C4B45E614
:1010000002F084F8031C2030272800DC5EE6083B51
:101010009E400023B346994665E6504602F076F8B6
:10102000021C2032272A00DC75E657460838874024
:1010300000237BE6994500D2AFE65A46594654084C
:101040004A46C8075208024303924A46D2079046CE
:10105000A9E60027884500D31CE7019F5A46BC46F5
:10106000E044B845BF417F42BF19FF18013ABE4274
:1010700006D2BC425FD800D19FE03F1B934609E7F0
:10108000B742FAD1019B4345F3D9371B934601E799
:101090009346D4E60293B1E64A468919013A8E4254
:1010A00018D99146814200D061E7019A9A4200D056
:1010B0005DE760E74F4F7F1B382F13DD012253465A
:1010C0001A404FE601235B42994654E7029308E732
:1010D000039327E788423CD874D0914647E7019BA9
:1010E0009A4648E71F2F44DC434B4A469C465B46E2
:1010F0006544FA40AB4013434A46AA40151C6A1E99
:1011000095415A46FA402B43171C5A0709D00F2223
:101110001A40042A05D01A1D9A429B415B42FF18CF
:10112000131C3A023ED55346012200211A400027E3
:1011300001238946AAE502235B429C46019AE344C7
:101140009446E04490459B415B429B19DF193F1B4D
:10115000A0E6019F4A467C00BC42BF417F42BF19C6
:10116000023AC91901949CE7002B95D10022019203
:101170009BE75A46214B5B1BDA40202F27D0204BA0
:101180009C465B466544AB4049460B43591E8B4128
:101190001343072200271A4007D00F2200271A40C6
:1011A000042AB8D17A077F023F0BDB081343994624
:1011B000012253461A40002368E54145BBD89346B7
:1011C000002767E6019C9C42C3D391466DE700234C
:1011D000DAE780275B463F031F433F033F0B019A3B
:1011E000034B53E5FF030000FFFFFFFEFE07000077
:1011F000FF07000002FCFFFF1E040000E2FBFFFFF0
:101200003E040000F0B55F464D4644465646F0B4F5
:101210001F035C00DB0F99461B4B0E034D00C90FEB
:101220008446360B6D0D8B4690463F0B640D9D42F8
:101230000CD0154B9C4210D00123A54214D0181C91
:101240003CBC90469946A246AB46F0BD311C0123FA
:101250000143F4D10C4B9C42EED13A430123002AC6
:10126000EDD10123A542EAD1BE42E8D1C445E6D181
:10127000CB4506D0002DE2D13043031C581E8341DC
:10128000DDE70023DBE7C046FF070000F0B5574667
:1012900045464E46E0B40F034E00C90F8A46324918
:1012A0001D035C0084463F0B760D90462D0B640DAC
:1012B000DB0F8E420FD08C4239D0002E10D1384334
:1012C000414241418946002C27D12A4325D10020A3
:1012D00000290ED108E0391C01432ED1B44226D09A
:1012E000002C0BD09A450DD0534659420123194387
:1012F000081C1CBC90469946A246F0BD2A43F3D078
:101300009A45F1D1A642EFDC1ADA504641424841F3
:10131000012341421943081CEBE74A46002AE1D069
:1013200058425841012241421143081CE1E7291C5F
:10133000114302D1002EC2D0D4E702204042D8E7A8
:10134000AF42D1D809D00020AF42D2D2504641425C
:101350004841012340421843CBE7C445C4D800208C
:10136000C445F3D3C5E7C046FF070000F0B55F46AC
:101370004D46444656468046F0B4061C0803000B12
:1013800084462C484C001F035D00C90F640D8B463A
:1013900091463F0B6D0DDB0F844212D0854225D064
:1013A000002C14D161460E4370424641002D35D0C9
:1013B000002E21D058425841012143420B43181CB2
:1013C0000EE06146022031430AD1A5420ED0002D25
:1013D00012D13A4310D15B46594201231943081CEC
:1013E0003CBC90469946A246AB46F0BD391C022053
:1013F0001143F5D1002CD5D09B45ECD1AC42EADCB1
:1014000005DBBC45E7D80FD00020BC45E8D25846E4
:1014100041424841414201200843E1E73A43C7D1F4
:101420000020002EDCD1D6E7C845D4D80020C8451E
:10143000EDD3D5E7FF070000F0B55F4656464D46B1
:101440004446F0B4051C061C080387B099464F00BB
:10145000030BCC0F92469B467F0D019467D06C4BDB
:101460009F4236D080205B4640031843C0006B0F7C
:101470001843684B83469C4600239846EE00674419
:1014800000934B4649461D03C90F5B0052462D0B86
:101490005B0D894600D16EE05D498B4264D08020AF
:1014A0005C4940038C4600210543ED00500F054385
:1014B000D20063444846FF187B1C9A46009B60405C
:1014C00002900B430F2B00D9ACE053489B00C3584C
:1014D0009F465B461D4300D082E008230093002313
:1014E0009B46023300269846CBE7029B0193434676
:1014F000022B59D1012400250026019B1C40444B9E
:1015000000212D030A0D12052D0B1543434A1B051F
:1015100015401D436D00E4076D082543301C291C50
:1015200007B03CBC90469946A246AB46F0BD2B4363
:101530004ED05B46002B00D185E1584601F0E6FD18
:10154000021C2823291C9B1A161C5846D940083E09
:10155000B0400B1CB54003439B462E1C0023304F6C
:101560000093BF1A98468CE7514629432ED1002597
:10157000002202219EE75146294323D0002D00D1AD
:1015800054E1281C01F0C2FD031C28215046C91A51
:101590001A1CC8405146083A914095400A1C054320
:1015A0001F480021C31A85E7032B00D1C2E1012B9C
:1015B00000D06DE14446019B00251C40E4B20023AD
:1015C00000269DE700250022012173E7032171E732
:1015D0000423009300239B4601330026984650E7DE
:1015E0000C230093093B98464BE7802500242D03EC
:1015F0000026074B84E74B46AB46161C01938846F2
:1016000075E7029BAB46161C019388466FE7C04600
:10161000FF07000001FCFFFF68740008FFFF0F8058
:101620000DFCFFFF330C3604360C9C46331C140CA7
:101630001204120C5343984663465343994663463B
:1016400063430193331C41466343090C4B445B18CD
:10165000994505D98020400281460199494401916C
:10166000190C039141460904090C1B045B180493EF
:101670002B0C9846331C2D04290C4B4360460093D9
:101680004346654658435E43009B4D431B0C9946B9
:10169000AE194E448446B54203D980235B02994675
:1016A000CC44350C2B1C0398634484460593009B63
:1016B00036041B041B0CF3189C44604603905846E8
:1016C0000504060C280C84465043351C81466046B0
:1016D000654344434846000C8346724314195C44F6
:1016E000A24203D98022520293465D44220CAD18D7
:1016F0004A461204120C24044046A41862464A4387
:101700007143464360460096464670438046100C3F
:1017100084468844E044414505D9802149028C46ED
:10172000009961440091019803998446614499426B
:101730009B415B4299460598434684461204120C2D
:101740001B049B1863449C46AB4683429B41404626
:101750000A19CC44A2428941E344CC45B6415C46D7
:10176000000C8046494276425B42641833439844F9
:101770008C428941AB459B4149425B4219430D1C58
:10178000009B4544EE187602E50D2E43B346049BBC
:1017900056021E43731E9E415B46D20D32436602C3
:1017A0001643DB010AD50123334076081E435B460E
:1017B000DB071E435B465B089B465746634BFB18A3
:1017C000002B5ADD720709D00F223240042A05D0BF
:1017D000321DB242B6417642B344161C5A46D2017B
:1017E00006D55A465A4B1A4080239346DB00FB1815
:1017F000584A934234DD0124029B00251C400026F8
:10180000554B7DE680205B460003034208D005422D
:1018100006D105432D032D0B4C46161C4E4B6FE68F
:101820005D4605432D032D0B4B4B69E6504601F0F9
:101830006DFC031C2033272B00DCA6E65546083838
:1018400085400022ACE6281C01F060FC021C20321E
:10185000272A00DC75E6083885400026AB467DE681
:101860005A46F608520716435A4601245502029A70
:101870005B052D0B5B0D144042E6384DED1B382DFA
:101880000ADD0124029B00251C400026002337E6C8
:10189000019B5746029391E71F2D25DC304B321CEC
:1018A0009C466744BE405B46BB40371CEA407E1EF8
:1018B000B74113433B431E1C5B46EB401D1C7307A3
:1018C00009D00F233340042B05D0331DB342B6415A
:1018D0007642AD191E1C2B0220D50124029B002547
:1018E0001C40002601230BE65A461E4BDB1BDA4048
:1018F000131C202D1CD01C4A94465A466744BA40FB
:10190000171C3E43721E96411E4307230025334099
:1019100007D00F2300253340042BD6D16B076D026F
:101920002D0B0124F6081E43029B1C400023E7E513
:101930000027E6E780255B4601242D031D43019B1C
:101940002D0323401C1C2D0B034BD9E5FF03000086
:10195000FFFFFFFEFE070000FF07000002FCFFFF85
:101960001E040000E2FBFFFF3E040000F0B54D4600
:1019700044465F465646F0B40E1C111C3203520A10
:10198000470F1743C5001A035800DB0F9946520A48
:101990004B0F83B01A43CB000193CF4B7400F60F6B
:1019A000640DB046400D984200D1E8E0012349465D
:1019B00059400B1C9E4200D1B1E0261A002E00DCDB
:1019C0001CE1002842D1131C01990B4300D0E6E032
:1019D0006B0700D18EE00F232B40042B00D189E050
:1019E0002A1DAA42AD418023012641466D427F193E
:1019F0001B043B400E40151C002B00D183E0B64B6E
:101A000001349C4200D116E13A1CB44BED081A4057
:101A10005007640552020543120B640D00211203A6
:101A20000B0D1B056405120B1A436308AC4CF6073B
:101A300014401C43640064083443281C211C03B078
:101A40003CBC90469946A246AB46F0BDA24B9C4298
:101A5000BED080231B041A43382E00DD03E11F2E65
:101A600000DD3FE12020831B9946131C49468B4033
:101A70009C46019B6046F34003430198F240884036
:101A8000011C481E81410B43EB1A9D4280411D1CE5
:101A9000BA1A4042171A3B0200D4A8E07A02560A4A
:101AA000002E00D1CAE0301C01F030FB031C083BC3
:101AB0001F2B00DDCBE02822291C121AD1409E40AA
:101AC0000A1C9D4032439C4200DDC8E01C1B671C81
:101AD0001F2F00DDEDE01F23291C1C1B131CA5403C
:101AE000A340F9406C1EA541FA4019430D43171C51
:101AF00000246DE78023012642461B043B4016402C
:101B0000002B00D07BE7744BED0878070543FA08FB
:101B10009C423BD012036405120B640D7EE7231A2E
:101B20009A46002B00DCA5E0002844D06A48844295
:101B300000D14DE78020000402435346382B00DCDF
:101B40001CE1019B1A43511E8A41D1B2002249195E
:101B5000A94280410D1CD219404217183B0246D5BC
:101B60005D4B01349C4200D169E101205B4A6B0866
:101B70003A4028401843D5070543570828E7131C67
:101B800001990B4300D111E74B4613E72B1C13437C
:101B900051D080231B031A431203120B3EE7013E70
:101BA000002E00D080E0691A8D429B41BA1A5B4238
:101BB000D71A0D1C6FE7101C019B184300D107E7D3
:101BC00001235B429C46E2445346002B00D002E1D5
:101BD000019BD2195919A9429B415B42D7180D1C90
:101BE000BCE76346034300D128E1071C65466B0749
:101BF00000D0F0E6012643461E4084E7002E00D0C8
:101C000081E0601C4005400D012800DC07E10199DE
:101C1000681A84466545B641B81A7642861B30027A
:101C200000D4A1E08C464D1BAC458941D21B4942F2
:101C3000561A984634E700220025EFE6281C01F0EA
:101C400065FA2030031C083B1F2B00DC33E7021C25
:101C5000283A95402A1C00259C4200DC36E71F4F9D
:101C6000E41A1740B4E6019B1A43511E8A41D3B2CD
:101C7000002209E7002B00D001E1601C43055B0D49
:101C8000012B00DCB0E0144B984200D11EE1019B17
:101C9000D2195919A9429B415B42D2184908D5076C
:101CA0000D435708041C93E60B4B9C4200D0D3E62F
:101CB0008EE6211C131C1F39CB40191C202F00D18C
:101CC0008EE03F231C1BA24015436A1E954100274E
:101CD0000D4300248BE7C046FF070000FFFF7FFF96
:101CE000FFFF0F80331C101C203BD840202E79D0E2
:101CF00040239B1B9A40131C019A1343591E8B418E
:101D000000220343C0E6002C53D0C74CA04200D1B0
:101D1000B0E080247142894624042743494638298B
:101D200000DDCDE01F2900DD59E120243E1C611AB1
:101D30008E408A46B04649462E1CCE405146B44697
:101D40008D4064464646494626436C1EA541CF4019
:101D500035430199D71B8C464D1BAC4592415242ED
:101D6000BF1A041C984696E663466546334300D086
:101D700096E60026002700240025C4E61F2B61DC20
:101D80002020C31A9B46131C59468B405146994646
:101D9000019BCB409C464B46604603439C465B46BA
:101DA000019999406346481E814119435346DA40E0
:101DB000CDE63C1C2C435DD0F1438946002955D12A
:101DC0000199D21B8C464D1BAC4589414942571A9B
:101DD000041C98465FE69448844200D0ADE6F7E5DF
:101DE000002271E7002387E73B1C2B43002C00D027
:101DF000DAE0002B00D113E1131C01990B4300D151
:101E0000E6E54919A9429B41D2195B42D7183B022A
:101E100000D421E1854B0D1C1F40041CD8E5381C63
:101E20002843002C40D1002800D083E0101C0199E9
:101E3000084303D0171C0D1C9846C9E5002600274F
:101E4000002560E65046131C2038C340181C53463A
:101E5000202B00D1C1E0402351465B1A9A400199E2
:101E600011434A1E91410022014370E66E4CA0428C
:101E700000D053E7171C019D041C9846A8E5002CD0
:101E800028D13C1C2C4300D18AE0DB439A46002B2E
:101E900000D082E0019BD2199C4665449D42894155
:101EA00049425718041C59E600285BD1101C0199BF
:101EB000084300D1A4E0171C0D1C98465A4C87E536
:101EC0003D436F1EBD410027EDB242E7041C0027D1
:101ED000002518E6544CA04262D0534680245B4251
:101EE0009A46240427435346382B00DD8EE01F2BEF
:101EF00000DD9DE02024E31A9B463B1C59468B40A5
:101F0000514699462B1CCB409C464B466446234386
:101F10009C465B469D4063466C1EA541CF401D43D9
:101F2000019BBF189C4665449D4292415242BF1896
:101F3000041C13E6101C0199084300D148E5681AF7
:101F4000844685428041BE1A4042301A060200D4BF
:101F500047E68C464D1BAC458941D21B4942571A76
:101F6000984635E5101C0199084334D08024780741
:101F7000ED08FF0824032843274208D0D60826424C
:101F800005D1C90852070A43101C371C9846FF00A8
:101F9000420F1743C500244C1AE5234CA042A2D19E
:101FA000171C019D041C13E5002B35D0131C01994F
:101FB0000B4310D080247807ED08FF082403284342
:101FC0002742E4D0D3082342E1D1C90852070A438B
:101FD000101C1F1CDBE7144CFAE400223FE74C46C0
:101FE0003E1C203CE6404946341C202932D0402685
:101FF000761AB7403D436F1EBD4100272543A8E632
:1020000080270026FF03084C00257CE53D436F1E1A
:10201000BD410027EDB283E7171C019D024CD7E4B8
:10202000171C019DD4E4C046FF070000FFFF7FFF9F
:1020300054463B1C203CE3401C1C5346202B0DD037
:10204000402351465B1A9F403D436F1EBD41002710
:10205000254365E70027CDE70D1CC8E50027F3E71A
:102060000B0330B5134C1A0B4B00051C5B0DC90F4D
:102070000020A34210DD104883420EDC80200F4C6C
:1020800040030243E41A1F2C0ADD0D48C31ADA404C
:10209000131C48424340581830BD0A4BC818FBE790
:1020A000281CE040084CA44663449A40131C034398
:1020B000EFE7C046FE0300001D04000033040000EB
:1020C00013040000FFFFFF7FEDFBFFFF38B5041E88
:1020D00016D0C50F00D04442201C01F017F8174B52
:1020E0001B1A0A2821DC021C211C153291400A1CF3
:1020F0000B21081AC4405B052403240B5B0D03E08D
:1021000000250023002400220021101C24030A0DB6
:102110001205240B14430A4A1B0514401C43640097
:10212000ED0764082C43211C38BD0B3884405B0547
:102130002403240B5B0D0022E6E7C0461E040000CA
:10214000FFFF0F8010B5041E10D000F0DFFF144A0F
:10215000121A0A281ADC0B23211C1B1AD94015302D
:102160000B03520584401B0B520D01E0002200239B
:1021700000211B03201C1C0B0B0D1B052343094CCA
:102180001205234013435B00590810BD031C0B3B91
:102190009C40520523031B0B520D0024E8E7C04668
:1021A0001E040000FFFF0F8003685A0003D45B0089
:1021B0005B08C0187047802212061343F9E7C04637
:1021C000F0B55F4656464D464446F0B483B000290C
:1021D0002FD04B1E924681469B46002701935B46BB
:1021E000FB18DC0FE4184B466410E5005E19301C48
:1021F000FFF7DAFF019B8046A34210D00835281C68
:102200004844FFF7D1FFD04504D9BC4211D0631E2A
:102210009B46E4E70138504503D2671CDFE7504591
:10222000F3D8301C03B03CBC90469946A246AB465E
:10223000F0BD0026F5E7C046012809D0022805D0E8
:10224000002801D0002070470248FCE70248FAE766
:102250000248F8E761290008792900086D2900087B
:1022600030B5234B83B0051C8C1E002B2AD0201CBC
:1022700001A900E000BF002820D00199221CFFF72F
:102280009FFF041E1AD0FFF78FFF6368A864012B1D
:1022900010D0201D002B1BDBFFF786FF0023E86416
:1022A0002B650368002B17DBFFF77EFF28610020FA
:1022B00003B030BD002305202B61F9E7002309207E
:1022C0002B61F5E70B480C49091AC9100191D5E7B4
:1022D0000123E8642B65E4E71801000FFFF7ACFF6A
:1022E000031C5A425341286109205B421840DFE732
:1022F00000000000BC7C0008947E0008036810B554
:10230000041CDA0705D49B070FD5483000F09EFC6B
:1023100023685A070FD51A0714D5DB0604D4201CEE
:10232000D130FF3000F09EFC10BD483000F08AFC38
:1023300023685A07EFD4201CD03000F08BFC2368B0
:102340001A07EAD4201C5130FF3000F087FC2368C4
:10235000E3E7C04602680023002A00D01318181CC7
:102360007047C046092070477047C04638B5041C06
:102370000D1C08E02B6C01206361211C2A1C2369C1
:102380009847082807D1201C296CFFF769FF00280F
:10239000F0D004F0D9FF0728FBD10020296CFFF70B
:1023A000E3FF281D00F038FCF0B54F464646C0B4A8
:1023B000C368324C9946A5448369171C051C043137
:1023C000402205A8984601F033FF002304AC216C9D
:1023D000281C0493FFF744FF794279410A23061C25
:1023E0005F1A002E15D0A36B102163644346394356
:1023F0000193C9B2009401202A1C2B1CC847002855
:1024000033D1301CF5239B009D440CBC904699466B
:10241000F0BDF022236C211C6B6152007CA801F0FE
:1024200007FF291C7CAA2B69381C98478A9B061C2D
:10243000636403934346009401930120391C2A1CD2
:102440002B1CC847002810D1F022201C7CA9520068
:1024500001F0EEFE082E06D1281C216CFFF700FFCC
:102460000927061CBDE7072E01D00920CAE7002076
:10247000216CFFF779FF05A800F0CEFB2CFCFFFFD5
:10248000406C704770B5CB6BFAB00B64041C0E1C2B
:1024900003A80431402201F0CBFE01235B420293EA
:1024A00006E0211C02AA23699847051E082D0AD1BF
:1024B000129B201C191C0193FFF7D2FE0028F0D0BC
:1024C00009207AB070BD02A8FFF718FF062DF7D1DA
:1024D000201C311CFFF74AFF08B58261DA6BC1602E
:1024E0001A64191C0022FFF75FFF08BD38B5436965
:1024F000041C0B64C3680D1C002B04D00122FFF7E1
:1025000053FF04F021FF0220211C2A1C2369984755
:10251000072807D0082803D1201C291CFFF726FF15
:1025200004F012FF0020296CFFF71EFF281D00F0A9
:1025300073FBC04608B5C368002B05D0CB6B0022E7
:102540000B64FFF731FF08BDFFF79CFFFBE7C046B8
:102550007047C04608B58368002B02D0011C0120DB
:10256000984708BD10B5012907D0002907D00339C5
:102570000224012901D9201C10BD0124FBE70224FB
:10258000002BF8D10F2AF6D8920080184268029BDF
:1025900000241A60EFE7C04600B585B003AB0A1C03
:1025A000009300210023FFF7DDFF039805B000BD75
:1025B00010B5012907D0002907D0033902240129C9
:1025C00001D9201C10BD0124FBE70224002BF8D107
:1025D0000F2AF6D8029B92001B68801843600024E3
:1025E000EFE7C0460B1C00B585B0039203AA00922A
:1025F00000211A1C0023FFF7DBFF05B000BDC04619
:1026000070B51A4CD36BA5441364061C0D1C19A895
:10261000111D402201F00CFE01235B42189314E0CF
:1026200018A80C2102AAFFF7DDFF18A8291CB04743
:10263000002812D1069B083002A918AA01939847D6
:10264000041E052C0AD0092807D0289B02A8191CB3
:102650000193FFF705FE0028E2D0092418A8FFF730
:102660004DFE201C90239B009D4470BDC0FDFFFFCC
:10267000F0B55F4656464D46444693460322F0B4B5
:102680001E1C131C8BB003400193CB6C0D1C1C1D36
:102690001B6808940793002E66D11B02079306ABB4
:1026A0005E731A73019B022B00D16EE02B6DDB076A
:1026B00047D40023A846B24602930833034003934D
:1026C0002668002E00D126E15346022B49D02688E9
:1026D0006588043401232F1C99469F4343469B6C15
:1026E0000F219C4658466744FFF756FF002187425A
:1026F00006D8311C4B4699437918884280414142A3
:1027000001222B1C13405B0032401343012B3ED0AF
:10271000002B5AD0022B1CD12368019A5F007F083E
:10272000002A65D1002906D0039A002A00D188E04A
:10273000002F00D1AAE0002B65DB0137BF00E419B0
:10274000BEE700230293022E47DDFFF70BFE0028B1
:1027500049D009200BB03CBC90469946A246AB46F6
:10276000F0BD65680834B5E7022E9BDC1A0C1B042B
:102770000793022306A90B73FD334A731A40019B8A
:102780009200A418022B00D090E7AC6B8EE7019B5F
:10279000002B3AD1002916D02368DD0F63689A1CFC
:1027A000D7D0424658320692013300D1B5E0201D01
:1027B000FFF7D0FD06AB011C2A1C404603F092FE39
:1027C000002800D0BAE008347AE7019B002B02D041
:1027D000002900D08BE0043472E7584607A900F0C6
:1027E000E7FA0028B5D1029B002B5DD10820B1E7A4
:1027F000434658460D211D6AFFF7CEFE854263D041
:102800002368002B99DA043497E7434658460D2194
:102810001D6AFFF7C1FE8542D5D143469B6A9C42A3
:10282000D1D14546201CFFF7BFFC0F21021C5846A2
:10283000FFF7D8FE584600212A1CFFF7D3FE0720D9
:1028400088E7002F22D058235146434406AABA46AF
:10285000251D0026049405911F1C914603E00435B4
:10286000261E564514D0281C0697FFF773FD00223C
:10287000011C4B464046741C03F034FE0028EED089
:102880005746059B049C9A46BE42B9D1454601E095
:102890004546049C58460D21FFF77EFE069B2862A4
:1028A0006B62AC62062055E70F215846FFF774FEB5
:1028B0000E21021C5846FFF795FE58460F21274A65
:1028C000FFF790FE072045E743469B6A9C4297D15D
:1028D000434642469F620023D36204331363231DA1
:1028E00053632368002B23DB0123029325E7201C7D
:1028F000FFF75AFC45460434061CAC63404603F01F
:102900004DFE002800D124E758460F21321CFFF766
:1029100069FE07201EE7564615E758460D21454635
:10292000FFF73AFE2862069B6B62AC62062011E755
:10293000381C013080004546201874E7071C0D2123
:1029400058464546FFF728FE2862022FEBD1069B2A
:10295000EB6243462C336B62E7E7C046C770000862
:1029600008B50023FFF784FE08BDC04608B5012363
:10297000FFF77EFE08BDC04608B50223FFF778FECC
:1029800008BDC046F0B5474680B4061CC2B0141C52
:102990001D1C012950D0002935D0032909D0042954
:1029A00002D1002B00D18EE0022042B004BC904640
:1029B000F0BD032BF8D11404150C240C6319102B53
:1029C000F2D8082203681A4200D005E120AF381C73
:1029D00000F046F9B36BED0064009C461A1C7919AF
:1029E000631E002C09D00A1C6546501A405901C2CA
:1029F000013BF9D2A400221C6244B263381C00F0EF
:102A00002DF90020D1E70220002BCED10023012791
:102A10001004B56B000C321D391C9940084202D0DD
:102A200029680435116001330432102BF4D10020E1
:102A3000A304BAD4B563B8E71404170C240C012B13
:102A400060D0052BB0D1E319202BADD80F2F69D959
:102A5000A046002C00D080E00023B16B9846002CEB
:102A600022D063009C465A1E20A8FB00C418231CD9
:102A7000181B085801C3013AFAD263469C0043462A
:102A80000919002B10D0434658003B1E102B00D2D2
:102A90001023103BDA0000236A448000CC58D45045
:102AA00004338342FAD1C918012D00D189E0B16302
:102AB0000F2F00D88CE04346002BA2D0684600F0D0
:102AC000C9F8002071E7102A00D96DE710220368C9
:102AD0001A4261D120AF381C00F0C6F80023012053
:102AE000B16B021C9A40144203D00D689A00BD508D
:102AF00004310133042BF4D1381CB16300F0B2F877
:102B0000002052E7E319102B00D94DE70F2F00D911
:102B10004AE700233268984615420DD120A800F0FC
:102B200093F899E7102B3ED91022524290469844D0
:102B300033681A1C0B4211D00123111C99430B1C42
:102B40003160052D4FD00323301C9A43326048304A
:102B500000F07AF84346002B17D033685A074FD459
:102B6000012D55D00F2F02D820A800F071F8434650
:102B7000002B00D170E7684600F06EF81024B16BAE
:102B8000E41B002C00DD6CE77DE7012DC6D000239F
:102B900098460F2FE8D95FE793430360D130FF30A9
:102BA00000F062F896E732681142F0D00223301C40
:102BB0008A431A433260483000F04AF800239846AE
:102BC000D2E7043120A8B16300F03CF80020ECE625
:102BD00020A800F03BF86EE7934303605130FF30CC
:102BE00000F03EF8F2E60222301C13433360483016
:102BF00000F02EF84346002BB6D033685A07B1D503
:102C00000422301C93433360D03000F025F8A7E74E
:102C100020A800F019F8B1E7011C343138C9043B91
:102C20009C461D60A646011C20313CC99046994631
:102C3000A246AB46011C0831FCC941680068E54664
:102C400000BDC0467047C0467047C0467047C0468A
:102C50007047C0467047C0467047C0467047C04680
:102C60007047C0467047C0467047C04601B401A8CF
:102C700001B585B0FFB408A841464A4653465C46B4
:102C800065463EC001A83EC80F98009000230CB4D2
:102C900001A9FFF7F7FB109B12B0184701B401A878
:102CA00001B585B0FFB408A841464A4653465C4684
:102CB00065463EC001A83EC80F98009000230CB4A2
:102CC00001A9FFF713FC109B12B0184701B401A82B
:102CD00001B585B0FFB408A841464A4653465C4654
:102CE00065463EC001A83EC80F98009000230CB472
:102CF00001A9FFF71FFC109B12B0184701B401A8EF
:102D000001B585B0FFB408A841464A4653465C4623
:102D100065463EC001A83EC80F98009000230CB441
:102D200001ABFFF7D9FB109B12B0184701B401A803
:102D300001B585B0FFB408A841464A4653465C46F3
:102D400065463EC001A83EC80F98009000230CB411
:102D500001AAFFF755FC109B12B01847027A031C1A
:102D6000002A04D1427AB020002A07D17047013AE4
:102D70000272006802021A60000EF7E7013A5A7206
:102D80005A68111D1068032259601A72F2E7C04692
:102D900000B585B003AB009300210C220023FFF7A0
:102DA000E1FB039805B000BD08B5FFF7F1FF08BDD2
:102DB000F0B556465F464D4644460023F0B487B012
:102DC00003937F339846703B9946083B071C0E1CC3
:102DD0009A46301CFFF7C2FF041EB02C00D1C6E09B
:102DE000031C42469343DBB2002B2AD0031C4A4605
:102DF0009343DBB2802B00D180E0902B41D0A02BFD
:102E00004ED0B02B61D0C02B00D191E0031C5246B4
:102E10009343DBB2D02B0BD1144080220134120338
:102E20002243381C01210523FFF7ACFD0028D0D038
:102E30000924201C07B03CBC90469946A246AB46EC
:102E4000F0BDFF2583001D4005AB9B460093381C59
:102E5000002300210D220435FFF784FB63060CD408
:102E6000059B9C46654405955B460093381C0021F4
:102E70000D220023FFF79CFBABE7059B5D1B05952F
:102E8000F2E7833B03400D2BD2D04A4605AD02400A
:102E90000095381C00210023FFF764FB0095E5E74F
:102EA000FF2352461B01191C824311410A1C1A4080
:102EB000030702D58023DB011A43381C00210023BD
:102EC000FFF760FD0028B3D183E7B12863D0B228B3
:102ED00076D0B32800D1A2E0FC230340B42BA7D0C6
:102EE000534680221C40013412032243381C012126
:102EF0000123FFF747FD00289AD16AE70402301C3E
:102F0000FFF72CFF802520432D02A84290D004011A
:102F10000005020C0021381C0023FFF733FD0028B8
:102F200000D085E72C4200D153E70123039350E7FB
:102F3000C62800D17FE0C72800D190E0031C52468C
:102F40009343DBB2C02B00D19EE0C82800D1A2E0A1
:102F5000C92800D06CE7301CFFF700FF4A464B46FB
:102F600002409843C0B201320003024359E7039B79
:102F70000024002B00D05CE705AD0095381C002133
:102F80000E22FFF7EFFA0095381C00210F220023D4
:102F9000FFF70EFB4DE7301CFFF7E0FE021E00D1ED
:102FA00046E7031C49468B43DBB2002B00D03FE7CA
:102FB000381C0021FFF7E6FC002800D038E708E7BE
:102FC00005AB0D22009300219B46381C0023FFF720
:102FD000C9FA301CFFF7C2FE4246031C9343DBB222
:102FE000002B65D0B03C43461840059BA0409C4652
:102FF00060440590301CFFF7B1FE4246031C93432A
:10300000DBB20734002BEED1812292009446424677
:103010001040A040059B63441C18059424E7301C15
:10302000FFF79CFE4A464B4602409843C0B201322D
:10303000000302435AE7301CFFF790FE4A464B4616
:1030400002409843C0B2013200030243381C0321FE
:103050000323FFF797FC002800D0E9E6B9E6301C0F
:10306000FFF77CFE021E00D1E2E6031C49468B43BB
:10307000DBB2002B00D0DBE6381C0421FFF782FC1A
:10308000002800D0D4E6A4E64B46A0221C40013420
:1030900012032243DAE7301CFFF760FE4B46021CA6
:1030A0009A43D2B210321840120301300243B8E6FC
:1030B0000224A9E7C26C10B5506884B00402101C49
:1030C00008300290032001AB1872D279081C191C39
:1030D00001945A72FFF76CFE04B010BD08B5FFF7FB
:1030E00063FE806C08BDC04608B5FFF75DFEC36C8B
:1030F000D87980000830181808BDC04608B504F01B
:1031000023F9C04608B504F01FF9C0461C2101236D
:103110001B04984201D3000C10391B0A984201D3BA
:10312000000A08391B09984201D30009043902A298
:10313000105C40187047C0460403020201010101FF
:1031400000000000000000007047C046FEE7C046D7
:103150007047C0467047C04608B500F003F800F05D
:103160000BF808BD024A1368013313607047C0466C
:10317000C40000207047C04608B5FFF7FBFF08BD3C
:10318000114B1A6801210A431A6058680F4A02401D
:103190005A6018680E4A02401A6018680D4A0240C8
:1031A0001A6058680C4A02405A60DA6A0F2082435B
:1031B000DA62186B094A02401A635A6B8A435A63EF
:1031C00000229A607047C046001002400CB8FFF819
:1031D000FFFFF6FEFFFFFBFFFFFFC0FFACFEFFFFA0
:1031E00000B58DB025230093013301930133029381
:1031F00001330393013304930133059301330693A1
:103200000133079309A822212322083B00F0D0FBB9
:1032100009A81021022200F093FC09A8074900F038
:10322000ADFC09A80021012200F05EFD02230093FD
:1032300009A8034A034B00F04BFDFEE7A874000801
:10324000EC51B81E85EB024010B584B0002816D1B1
:10325000083003F0DBF8041C6846294901AA03F092
:10326000AFFE201C694603F0E1FD00980C3802A96E
:1032700003F02EFE201C2349234A03F067FD902310
:10328000DB05984206D1214A5369802189020B430C
:10329000536132E01E4B984206D11C4A536980218B
:1032A000C9020B43536128E01A4B984206D1174AD2
:1032B0005369802109030B4353611EE0164B98426A
:1032C00006D1124A5369802149030B43536114E02C
:1032D000124B984211D10D4A53698021C9030B4307
:1032E00053610AE000980C3803A903F0F1FDFFE7F1
:1032F000201C03F0B7F803F0D1F804B010BDC046AD
:10330000C474000828790008D96D00080010024034
:103310000004004800080048000C00480014004861
:1033200010B584B0002816D1083003F06FF8041CE3
:103330006846144901AA03F043FE201C694603F0C5
:1033400075FD00980C3802A903F0C2FD201C0E493F
:103350000E4A03F0FBFC002A03D1836A1943816201
:103360000EE08369194381610AE000980C3803A9D3
:1033700003F0AEFDFFE7201C03F074F803F08EF8B5
:1033800004B010BDC474000828790008D96D000885
:1033900070B5041C0D1C00F00DFA061C201C00F07A
:1033A00063F9041C431C02D1044801F069FBA1B27B
:1033B000301C2A1CFFF7B4FF70BDC046D47400084F
:1033C00070B5041C0E1C00F0F5F9051C201C00F063
:1033D0004BF9041C431C02D1084801F051FB002E9C
:1033E00005D1A1B2281C0022FFF79AFF04E0A1B288
:1033F000281C0122FFF794FF70BDC046D47400085A
:10340000F0B54F464646C0B485B0041C161C99461C
:103410000CAB1F780DAB1B789846002816D10820FE
:1034200002F0F4FF041C6846694901AA03F0C8FDD4
:10343000201C694603F0FAFC00980C3802A903F03E
:1034400047FD201C6349644A03F080FC081C00F01F
:103450009FF9051C431C02D1604801F011FB012EAD
:1034600012D0002E04D0022E1BD0032E26D032E024
:1034700023686800012181408B4323602368022276
:1034800082409343236026E0206869000122131CD8
:103490008B4003432360236801328A4093432360B7
:1034A00019E022686800012181408A432260216876
:1034B0000222131C83400B4323600CE02368680046
:1034C00002210A1C82401A43226021680122131C37
:1034D00083400B4323604B46002B02D0012B06D0C8
:1034E0000BE063680122AA409343636005E06168D2
:1034F0000122131CAB400B4363604346012B10D0E9
:10350000002B02D0022B19D024E0E36868000121CF
:1035100081408B43E360E368022282409343E3608F
:1035200018E0E06869000122131C8B400343E3604C
:10353000E36801328A409343E3600BE0E26868008D
:10354000012181408A43E260E1680222131C83402A
:103550000B43E360012F10D0002F02D0022F19D0AF
:1035600031E0A3686D000122AA409343A360A368E1
:103570000222AA409343A36025E0A1686D000122C6
:10358000131CAB400B43A360A3680132AA409343D2
:10359000A36018E0A1686D000122131CAB400B432F
:1035A000A360A2680223AB401D1C1543A5600AE07E
:1035B00000980C3803A903F08BFCFFE7201C02F0F5
:1035C00051FF02F06BFF05B00CBC90469946F0BD70
:1035D000C474000828790008D96D0008E874000850
:1035E00070B582B0041C0E1C00F0E4F8051C201C11
:1035F00000F03AF8041C431C02D1194801F040FACB
:10360000281CFFF721FE012E1AD0002E02D0042E16
:103610000BD01FE0A1B20023009302330193281CBA
:1036200000220023FFF7ECFE17E0A1B20023009375
:1036300001330193281C00220023FFF7E1FE0CE078
:10364000A1B20223009300230193281C0122FFF75B
:10365000D7FE02E0034801F013FA02B070BDC04685
:10366000D4740008007500083E2803D88000414B40
:103670001B589F46012040427BE08020C00178E03B
:103680008020000275E0012073E0022071E001203B
:103690006FE002206DE004206BE0082069E001206B
:1036A00067E0022065E0042063E0082061E010206C
:1036B0005FE020205DE010205BE0202059E040200A
:1036C00057E0802055E0102053E0202051E00120F9
:1036D0004FE002204DE004204BE08020C00048E095
:1036E0008020000145E08020400142E08020C001B0
:1036F0003FE0802000023CE040203AE0802038E0BB
:103700008020400035E08020800032E080204000B2
:103710002FE0802080002CE08020C00029E0802065
:10372000000126E08020400123E0402021E08020AD
:103730001FE0802000021CE08020C00019E08020F3
:10374000000116E08020400113E0042011E0082071
:103750000FE010200DE020200BE0402009E0802049
:1037600007E08020400004E08020800001E080200D
:10377000800170471C750008002804D0431E1842C1
:1037800003D0002002E0002000E001207047C04686
:1037900010B5041CFFF7F0FF002807D0002001231C
:1037A00001E05B0001301C42FBD001E001204042FF
:1037B00010BDC04610B584B0031C0E3B032B73D95B
:1037C000142874D0152875D0162876D0172877D0ED
:1037D000292878D02A2879D02B287AD02C287BD079
:1037E0002D287CD02E287DD031287ED032287FD045
:1037F0000C3B022B7FD937287FD038287FD039283F
:103800007FD03A287FD03B287FD03D287FD03E28EC
:103810007FD01D287FD01E287FD021287FD022284E
:103820007FD023287FD024287FD01233032B7ED94A
:1038300018287ED019287ED025287ED026287ED034
:1038400027287ED028287ED033287ED034287ED0EA
:1038500035287ED002287ED003287ED004287ED052
:1038600036287ED0431F012B7DD912287DD0132806
:103870007DD02F287DD030287DD0082002F0C6FDD5
:10388000041C6846434901AA03F09AFB201C6946C0
:1038900003F0CCFA00980C3802A903F019FB201CA5
:1038A0003D493E4A03F052FA9020C00570E0902056
:1038B000C0056DE09020C0056AE09020C00567E07B
:1038C0009020C00564E09020C00561E09020C00514
:1038D0005EE09020C0055BE09020C00558E090209D
:1038E000C00555E09020C00552E09020C0054FE093
:1038F0009020C0054CE02A484AE0294848E0284882
:1039000046E0274844E0264842E0254840E0244875
:103910003EE023483CE022483AE0214838E0204895
:1039200036E01F4834E01E4832E01D4830E01D48B4
:103930002EE01C482CE01B482AE01A4828E01948D1
:1039400026E0184824E0174822E0164820E01548F1
:103950001EE014481CE013481AE0124818E0114811
:1039600016E0114814E0114812E0104810E00F482A
:103970000EE00E480CE00D480AE000980C3803A950
:1039800003F0A6FAFFE7201C02F06CFD02F086FDB2
:1039900004B010BD1876000828790008D96D000819
:1039A0000004004800080048000C004800140048CB
:1039B000F0B55F4656464D464446F0B489469246B9
:1039C000984609AB1B789C460AAB19780BAB1A7862
:1039D0000CAB1B789B460DAC27780EAC26780FAC51
:1039E000257810AC24784B46037053464370434609
:1039F00083700823C3726346C370017142715B46D2
:103A00008371C7710672457284723CBC90469946B8
:103A1000A246AB46F0BDC04682B00023019302E04F
:103A2000019B01330193019B8B42F9DB02B070478C
:103A300038B5051C002405E02B19D8780121FFF7C3
:103A4000CFFD0134EB7AA342F6DC68780121FFF761
:103A5000C7FDA8780121FFF7C3FD28780121FFF7F2
:103A6000BFFD38BD10B5041CC8214900FFF7D4FFC5
:103A7000A0780121FFF78CFC10BDC04608B5407846
:103A80000021FFF785FC08BD08B500780021FFF78D
:103A90007FFC08BD08B500780121FFF779FC08BD5F
:103AA00070B5051C0E1C002408E02B19D878331CB7
:103AB000234101211940FFF783FC0134EB7AA34233
:103AC000F3DC281CC8218900FFF7A6FFA878002195
:103AD000FFF75EFC70BDC04638B5041C0D1CFFF737
:103AE000CDFF201CFFF7D6FF201CFFF7BBFF201CDB
:103AF000291CFFF7D5FF012038BDC04638B5041C8E
:103B00000D1CFFF7BBFF201CFFF7BEFF201CFFF7BB
:103B1000A9FF201C291CFFF7C3FF38BD10B5041CEA
:103B20000121FFF7EBFF201C3821FFF7E7FF201CE6
:103B30000E21FFF7E3FF201C0621FFF7DFFF10BD7A
:103B400010B5041CFFF774FF201CFFF7E7FF10BD42
:103B500070B5061C0C1E07D1002509E0301CFFF7CC
:103B6000BBFF0134013500E0002521780029F5D1A3
:103B7000281C70BD08B5FFF7AFFF08BD08B5FFF7FB
:103B8000E7FF08BDF0B58DB001900D1C161C00219B
:103B9000202303AAD154012E00D80A260BAF281CDB
:103BA000311CFCF78BFBCCB2281C311CFCF700FB52
:103BB000051C013F092C02D83034E4B201E037344F
:103BC000E4B23C70002DEAD10198391CFFF7C0FF28
:103BD0000DB0F0BD08B5D2B2FFF7D4FF08BDC046A6
:103BE00008B5FFF7F7FF08BDF0B585B00390009268
:103BF0001C1C0AAB1D78101C211C00220023FCF7A2
:103C00006FFC002809D003982D21FFF7B3FF061C95
:103C100080231B069C46644400E000260027002207
:103C2000294B09E0101C191C0022284BFCF7C6FF89
:103C3000021C0B1C0137FFB2AF42F3D30098211CCA
:103C4000FCF794FC00900191FCF772FC071CFEF756
:103C500079FA021C0B1C00980199FDF787FE009071
:103C600001910398391C0A22FFF7B4FF3618002D82
:103C700022D003982E21FFF77DFF36181CE0009814
:103C800001990022114BFDF7D7FB00900191FCF741
:103C90004FFC071C0398391C0A22FFF7A1FF3618B6
:103CA000381CFEF74FFA021C0B1C00980199FDF717
:103CB0005DFE00900191251C6B1EDCB2002DDED153
:103CC000301C05B0F0BDC0460000E03F00002440BD
:103CD00030B583B01D1C069BDBB200932B1CFFF795
:103CE00083FF03B030BDC04608B592018A18802119
:103CF00049421143C9B2FFF701FF08BD0D4885468F
:103D00000D480E490E4A002302E0D458C450043333
:103D1000C4188C42F9D30B4A0B4C002301E013600A
:103D20000432A242FBD3FFF72BFA00F05BFAFFF755
:103D300057FAFEE70020002000000020A800002025
:103D4000A47E0008A8000020FC090020FEE7000077
:103D50000A4B10B5041C1868002804D08369002B96
:103D600001D100F0ADF90020132C05D8044BE4007C
:103D7000E258013200D0181910BDC046640000207E
:103D8000CC000020F8B5051C00F052F90027061CF5
:103D90001324201C391CABBE041C281C3460F8BD45
:103DA00008B5431C01D1FFF7EDFF08BD30B585B064
:103DB00001AD0190029103920624201C291CABBE88
:103DC000041C201CFFF7ECFF05B030BD70B50E1CC5
:103DD000151CFFF7BDFF041E05D100F029F90923CA
:103DE00003600A3B0BE00068311C2A1CFFF7DEFF72
:103DF000031C421C03D062682B1AD2186260181C84
:103E000070BDF7B50C1C161CFFF7A2FF051E03D1F1
:103E100000F00EF9092304E0022E06D900F008F99B
:103E2000162303600120404225E0012E03D14368A0
:103E3000E41810D5F2E7022E0DD103680A3600937C
:103E40006F46301C391CABBE061C301CFFF7A8FFA8
:103E50002418431CE6D02B686F46009301940A2671
:103E6000301C391CABBE061C301CFFF799FF002824
:103E7000D8DB201C6C60FEBD08B5FFF7C2FF08BD93
:103E800030B585B001AD0190029103920524201C4C
:103E9000291CABBE041C201CFFF782FF05B030BDFF
:103EA00070B50E1C151CFFF753FF041E04D100F063
:103EB000BFF80923036010E00068311C2A1CFFF7DB
:103EC000DFFF031E09DB6268281A121862609D4238
:103ED00005D10020FFF756FF01E00120404270BDF0
:103EE00037B50224019001AD201C291CABBE041C77
:103EF000201CFFF755FF3EBD38B5051CFFF728FF16
:103F0000041E06D100F094F809230360012040420A
:103F100014E0013D012D09D8094B9A681B699A42AA
:103F200004D101235B420360002007E02068FFF713
:103F3000D7FF002802D101235B42236038BDC04671
:103F4000CC000020012070470E4B10B51A68002AE3
:103F500001D10D4A1A6069461A681018884206D8BD
:103F60000A490B4C0968A14208D0884206D900F0E2
:103F70005FF80C2303600120404201E01860101C30
:103F800010BDC046C8000020000A0020000000202C
:103F9000ADDEFECA70B50C1CFFF7DAFE061E05D1B9
:103FA00000F046F8092303600A3B14E080236268AE
:103FB0009B01134363608023DB00E3620C25281C14
:103FC000311CABBE051C281CFFF7EAFE031C421C7B
:103FD00001D000232061181C70BD38B5051C0C1CD5
:103FE0003C22081C002100F02CF9281C211CFFF7A2
:103FF000D1FF38BD70B5FFF7ABFE0925041E03D114
:1040000000F016F8056010E0281C211CABBE041C53
:10401000012084420AD000F00BF80024061C13256E
:10402000281C211CABBE051C3560201C70BD000087
:10403000014B18687047C0466400002008B502496B
:1040400000F0AEF808BDC046B95B0008002310B50B
:10405000041C03604360836081814366C281036105
:1040600043618361191C08225C3000F0EAF8054BBB
:1040700024626362044BA362044BE362044B236338
:1040800010BDC046094B0008314B0008694B0008C1
:10409000954B000870B568254B1E5D430E1C291C0E
:1040A000743100F0D7F8041E08D000212A1C0160EA
:1040B00046600C30A060683200F0C3F8201C70BD70
:1040C000836913B5002B28D18364C3640365134B44
:1040D000134A1B6882620193984201D101238361D4
:1040E000041C00F01FF86060201C00F01BF8A060AA
:1040F000201C00F017F80421E06000226068FFF740
:10410000A5FFA06809210122FFF7A0FFE0681221A6
:104110000222FFF79BFF0123A36113BD98760008DD
:104120003D400008F8B51D4B061C1D68AB69002B0F
:1041300002D1281CFFF7C4FF4835AC686B68013B0F
:1041400005D40C22A75E002F10D06834F7E72B6847
:10415000002B06D1301C0421FFF79CFF28600028AB
:1041600001D02D68E9E70C23336016E00123201C01
:104170005B42E3810233A38167662760A7606760C3
:1041800027616761A7615C30391C082200F059F88B
:10419000201C6763A763A764E764F8BD98760008EE
:1041A000F7B5041C071C002601914834002C16D0DA
:1041B0006368A5680093009B013B00930DD4AB8915
:1041C000012B08D90E22AB5E013304D0381C291C08
:1041D000019B984706436835EDE72468E6E7301C05
:1041E000FEBD00000E4B70B500251E1C0D4CE41AE0
:1041F000A410A54204D0AB00F35898470135F8E766
:1042000003F006F9084B00251E1C084CE41AA41004
:10421000A54204D0AB00F35898470135F8E770BDCC
:10422000947E0008947E0008947E0008A07E00081A
:10423000002310B5934203D0CC5CC4540133F9E79A
:1042400010BD031C8218934202D019700133FAE7A3
:1042500070470000032370B5CC1C9C430834051C38
:104260000C2C01D20C2405E0002C03DA0C230020D6
:104270002B6042E08C42F9D3204A1368101C191CB1
:10428000002913D00A68121B0DD40B2A02D90A6028
:104290008B181FE08B4202D15A6802601BE04A680B
:1042A0005A600B1C17E00B1C4968E9E7144E336891
:1042B000002B03D1281C00F015FC3060281C211CA9
:1042C00000F010FC031C421CD0D00322C61C9643F5
:1042D00086420AD11C60181C07210B301A1D884326
:1042E000821A0AD05142995007E0311A281C00F076
:1042F000F9FB431CBAD0331CECE770BD7001002001
:104300006C010020F0B58BB0141C1D1E129906DA4A
:10431000802424062B191D1C141C2D2300E00023CF
:104320000B702023149E03229E43462E07D0331C7D
:10433000453B59424B411099013ACB181093109BC1
:1043400000920193139B221C029308AB039309ABC9
:1043500004932B1C00F0A6FD071C472E02D1119BD5
:10436000DB072CD5109BFB180793462E14D13B7806
:10437000302B0CD1201C291C00220023FCF7AAF8AA
:10438000002804D10123109A9B1A139A1360139BDF
:10439000079A1B68D3180793201C291C00220023AE
:1043A000FCF798F8002801D0079B0993099B079A0E
:1043B000934204D25A1C099230221A70F6E7381C34
:1043C000099B159ADB1B13600BB0F0BDF7B52B23CF
:1043D000071C0C1C0270861C002901DA2D234C429C
:1043E0007B70092C1CDD6B46DD1D201C0A21FCF7AF
:1043F00055F8013D30312970201C0A21FBF768FF78
:10440000041E092CF1DC013D30342C706B4607335F
:10441000301CAB4209D92B78013533700136F5E7F2
:104420003023E4183370B01C7470C01BFEBD000054
:10443000F0B593B00C1C08920993189E051C01F06E
:10444000E7FB0368181C0B9300F0AAFB002321680C
:1044500010930C90277E33680722C90501D59B185D
:1044600000E0073393431A1C083232601A685B6815
:10447000A264E364A06CE16C00F00CFB012818D18D
:10448000A06CE16C00220023FCF72AF8002803D07E
:10449000231C2D2243331A70B64B0A93472F01D9A0
:1044A000B54B0A9303232268236101339A432260A8
:1044B00012E0A06CE16C00F0EDFA266800280DD146
:1044C000AE4B0A93472F01D9AD4B0A930323311CFE
:1044D0002361013399432160002680E080216068D8
:1044E000C900431C01D1062309E0A26CE36C672FCD
:1044F00001D0472F04D1002800D0C0E10123636020
:10450000636831430093232321600191002106AAAF
:104510009B1802930FAB039310AB05930497A26C07
:10452000E36C0691281CFFF7EDFE20233A1C0A904D
:104530009A43472A07D10F9BDA1C02DB6268934239
:104540002DDD023FFFB20F99652F12D8201C0139D3
:104550003A1C50300F91FFF739FF109A061C831850
:104560002361012A02DC2268D2072ED501332361A0
:104570002BE0662F14D16368002908DD2161002B30
:1045800002D12268D2071DD50133CB1811E0002BD0
:1045900003D101222168114213D09A1C11E0672730
:1045A0000F9B1098834206DB22682361D20709D54E
:1045B0000133236106E00122002B01DC0221CA1A2B
:1045C0008218226100260F9BA365232306AA9B184D
:1045D0001B78002B03D0231C2D2243331A70099B18
:1045E000281C0093211C089B11AA00F05FF9431CB2
:1045F00002D10120404256E12268530504D4281C10
:1046000008990A9A236916E1652F00D8D4E0A06CB6
:10461000E16C00220023FBF75DFF00282BD0012373
:10462000281C0899574A099EB047431CE1D00F9BAC
:10463000109A934207DB2368DB0704D423689B07A7
:1046400000D51AE113E1099E281C08990B9A0C9BCE
:10465000B0470026431CCCD0109B013B9E42EDDAB4
:10466000221C0123281C08991A32099FB847431CB1
:10467000BFD00136F0E70F9B002B2BDC0123281C59
:104680000899404A099EB047431CB2D00F9B002BAB
:1046900005D1109B002B02D12368DB07CED5099EE4
:1046A000281C08990B9A0C9BB0470026431CA0D0ED
:1046B0000F9B281C5B4208999E4208DA221C0123AA
:1046C0001A32099FB847431C93D00136F0E70A9A83
:1046D000109BB0E0109BA66D9E4200DD1E1C002EBC
:1046E00001DC002314E0331C281C08990A9A099F56
:1046F000B847431CF5D17CE7221C0123281C0899EC
:104700001A32099FB847431C00D172E70D9B013351
:104710000D93F343A26DDB170D993340D31A9942E1
:10472000EADB0A9B9E180F9B109A93420EDB2368CC
:10473000DB070BD4109B0A9AD7180F9ABF1B9B1A42
:104740009F4200DD1F1C002F09DC11E00C9B281C80
:1047500008990B9A099FB847431CEBD149E7321CD3
:104760003B1C281C0899099EB047431C00D140E718
:10477000002315E09C760008A0760008A4760008C7
:10478000A8760008AC760008221C0123281C089992
:104790001A32099EB047431C00D12AE70A9B013315
:1047A0000A930F9A109B9A1AFB43DB173B40D31ACC
:1047B0000A9A9A42E8DB41E7109B281C0899012BD2
:1047C00002DC01231A423CD001230A9A099FB84710
:1047D000431C00D10DE70C9B281C08990B9A099FDC
:1047E000B847431C00D104E7A06CE16C0023002211
:1047F000FBF770FE0023002812D10A9A109B0132A9
:10480000013B281C08991DE0221C0123281C089943
:104810001A32099FB847431C00D1EAE60A9B0133CC
:104820000A93109B0A9A013B9A42EDDB221C281C3A
:10483000331C08995032099EB047431C00D0FDE656
:10484000D7E60A9A099FB847431CEFD1D1E6221C4C
:104850000123281C08991932099FB847431C00D12D
:10486000C7E60136E368119A9B1A9E42EFDB119B63
:10487000E068984217DA181C15E00026F2E7314389
:10488000216001912321009006A8091802910FA927
:10489000039110A90591002104970691281CFFF7A8
:1048A00031FD0A9047E613B0F0BDC046F7B5171CBE
:1048B00001930A698B6800900C1C934200DA131C68
:1048C000221C3B6043321278002A01D001333B6046
:1048D00023689B0602D53B6802333B6006252368AC
:1048E0001D401ED0231C43331B785A1E934122685F
:1048F00092061CD53020E1184031C870211C5A1C8A
:1049000045310978A21840320233D1700FE0221CE1
:104910000123009801991932089EB047431C0ED01C
:104920000135E3683A689B1A9D42F0DBDAE7221C06
:10493000009801994332089DA847431C02D10120E9
:10494000404220E006232068E1683A6803400025E1
:10495000042B03D18D1AEB43DB171D40A36822699A
:10496000934201DD9B1AED180027AF420ADA221CA0
:104970000123009801991A32089EB047431CDED0EB
:104980000137F2E70020FEBD70B5051C0E1C0028A3
:1049900004D08369002B01D1FFF792FBAB69AC68AF
:1049A000002B02D1281CFFF78BFB324B9C4201D11C
:1049B0006C6808E0304B9C4201D1AC6803E02F4B9F
:1049C0009C4200D1EC68A3891B0702D52369002B08
:1049D00019D1281C211C00F057F9002813D0012000
:1049E000404245E03178002B1BDAA269934211DA8C
:1049F000221C281C00F0DCF8013042424241D0B2B7
:104A00000028ECD10136A3683278013BA360002A6C
:104A1000E8D10CE023681970236819780A2903D1BA
:104A2000E6E723681970236801332360EAE7002B67
:104A300017DAA269934208DB0A23226813702368FD
:104A400019780A2911D1281C01E0281C0A21221CEE
:104A500000F0AEF8013042424241D0B2002806D008
:104A6000BDE70A23226813702368013323600A20FC
:104A700070BDC0463476000854760008747600088D
:104A800008B5034B011C1868FFF77EFF08BDC04640
:104A90006400002030B50C1C0223044317D080248E
:104AA0002406A14201D1002811D00A4B490049082F
:104AB000094ACC180423944209D9084A013B91427F
:104AC00005D9074A0023914201D143424341181CB2
:104AD00030BDC0460000F0FFFFFFDF7FFFFF0F008B
:104AE0000000F07F38B50023064C051C081C23602D
:104AF000FFF72AFA431C03D12368002B00D02B6058
:104B000038BDC046F809002038B50C1C0E25495F99
:104B100001F042FC002803DB636D1B18636503E0B2
:104B2000A289024B1340A38138BDC046FFEFFFFFAF
:104B3000F8B51E1C8B89051C0C1C171CDB0505D544
:104B40000E23C95E0022022301F066F8A289054BFC
:104B5000281C1340A3813A1C0E23E15E331C00F095
:104B60007FF8F8BDFFEFFFFF38B50C1C0E25495F3D
:104B700001F052F8A389421C03D1054A1340A381D6
:104B800004E0802252011343A381606538BDC04612
:104B9000FFEFFFFF08B50E23C95E00F0E9F808BD7E
:104BA0000023C25C0133002AFBD1581E704700006D
:104BB00070B5051C0E1C141C002804D08369002B42
:104BC00001D1FFF77DFA234B9C4201D16C6808E0CC
:104BD000214B9C4201D1AC6803E0204B9C4200D1A8
:104BE000EC68A369A360A3891B070AD52369002B7E
:104BF00007D023682269F6B2981A636998420FDBDE
:104C000008E0281C211C00F03FF80028F1D001200A
:104C100040421DE0281C211C00F0CEFF0028F6D1E8
:104C2000A3680130013BA36023685A1C22601E70F8
:104C30006369984205D0A389301CDB0708D50A2E8A
:104C400006D1281C211C00F0B7FF0028DFD1301C42
:104C500070BDC046347600085476000874760008AB
:104C600038B5051C0020074C2060081C111C1A1CBC
:104C7000FFF716F9431C03D12368002B00D02B60EB
:104C800038BDC046F8090020354B70B51D68061CBC
:104C90000C1C002D05D0AB69002B02D1281CFFF79E
:104CA0000FFA304B9C4201D16C6808E02E4B9C42BD
:104CB00001D1AC6803E02D4B9C4200D1EC68A38984
:104CC0009AB2110723D4D10607D4092201203260F9
:104CD00037321343A381404240E0530713D5616B41
:104CE000002908D0231C4433994202D0301C01F023
:104CF0000DFB002363632422A3899343A381002334
:104D00006360236923600822A3891343A381236975
:104D1000002B0BD1A023A2899B001340802292007C
:104D2000934203D0301C211C00F08AFF0123A2898A
:104D3000134005D00023A36063695B42A36103E0D5
:104D4000910700D46369A36000202369834205D1E1
:104D5000130603D540231A43A281013870BDC04613
:104D60006400002034760008547600087476000849
:104D700038B50023064C051C081C2360FFF7BCF85F
:104D8000431C03D12368002B00D02B6038BDC046E4
:104D9000F8090020F0B503690C6989B00026A34228
:104DA0007CDB0B1C013C1433A50003935B190493BB
:104DB000031C143301935D19049B07911B68029037
:104DC000591C28680593FBF7F3F9071EB74235D045
:104DD000039B01989C460596634604CB91B27943A8
:104DE000120C7A4371180E0C9C46B3180693028875
:104DF0001E0C059B89B2D2180368521A190C6B4617
:104E00001B8BCB1A11145B18191492B21B041A4392
:104E1000049B059104C06345DED22B68002B0DD1A5
:104E2000231C019A043D954203D8029A1C1C13616D
:104E300004E02A68002AF8D1013BF2E702980799BA
:104E400001F07CF9002828DB00200199039A013742
:104E500020CA0B881818ABB2C31A08682D0C000CB6
:104E6000451B1E14AD1928149BB22D042B4308C1F9
:104E7000049B9342ECD2019AA300D3181A68002A2B
:104E80000BD1019A043B934202D8029B1C6104E0BF
:104E90001A68002AF9D1013CF3E73E1C301C09B026
:104EA000F0BD0000F0B5161C1F1C446A9BB00890B2
:104EB000239D06960797002C08D1102000F018FFBC
:104EC000089B5862446084600460C460089B5B6A0D
:104ED000196800290BD05A68012393404A608B60FF
:104EE000089800F051FF0022089B5B6A1A60079B3C
:104EF000002B05DA01232B607B005B08079301E0A0
:104F000000232B60079CC64B221C17931A409A4221
:104F100019D1C44B229A1360069AC34B002A02D1BE
:104F2000240300D1C14B249A181C002A01D100F09F
:104F3000B6FDD978DA1C002900D005322499181C56
:104F40000A6000F0ACFD069E079F0022301C391C51
:104F50000023FBF7BFFA051E0ED00123229A13602F
:104F6000B34B249A181C002A01D100F098FDB14AD5
:104F700024990A6000F093FD19AB009318AB0193DC
:104F80000898321C3B1C01F05FF961000A90490D42
:104F900009D03803A84C000B0443A848321C231C3A
:104FA0000E1816951CE0189B199A9E18A44B9E4249
:104FB00009DBA44BF018069BC340181CA24B9B1B9B
:104FC0009C40204304E0A148069B801B8340181CA2
:104FD000FDF7B8F89E4C021C0B190121013E1691F9
:104FE000101C191C00229B4BFCF7C0FC9A4A9B4BDF
:104FF000FCF722FA9A4A9B4BFBF7B8FA041C301CC8
:105000000D1CFDF763F8984A984BFCF715FA021C43
:105010000B1C201C291CFBF7A9FA041C0D1CFDF716
:105020001FF8291C03900022201C0023FBF758FACC
:1050300000280DD00398FDF749F8021C0B1C201C1A
:10504000291CFBF747FA43424341039AD31A0393BF
:1050500001231393039B162B11D8854ADB00D31829
:1050600018685968069A079BFBF74EFA002805D086
:10507000039B013B03930023139300E01390189BC1
:105080009E1B00230D93013E0E9604D50E9B5B42A2
:105090000D9300230E93039B002B08DB039A0E9BBA
:1050A000944663440E93002312920F9307E00D9BE6
:1050B000039A9B1A0D9353420F9300231293209B44
:1050C0000125092B27D8052B02DD0025043B209361
:1050D000209B981E032823D8FBF760F8020E0410CB
:1050E000002300E001231093219B002B21DC0123EE
:1050F0000B9309931A1C1AE0002300E00123039A82
:1051000010939446219B63440B9301330993002B26
:1051100012DC012310E0002310952093013B02E0F4
:1051200001231093023B00220B9309931333219226
:1051300002E0219B0B930993089A546A0022626053
:105140000432111C1431994204D8616852000131B3
:105150006160F6E70898616800F0DEFD089B20605A
:105160005B6A1B680C93099B0E2B00D988E1002D0C
:1051700000D185E1069B079C14931594039B002B9B
:1051800030DD0F223A491340DB00CB185C681B6806
:1051900004930594039B02271D11EB060AD514986E
:1051A0001599344B15401A6A5B6AFBF707FD0690A8
:1051B000079101372F4C002D0DD0EB0708D504982F
:1051C000059922686368FCF737F904900591013767
:1051D0006D100834EFE706980799049A059BFBF7D2
:1051E000EDFC49E0039B02275D42002D46D0149858
:1051F00015990F231E4A2B40DB00D3181A685B68F1
:10520000FCF71AF91B4C2D11002D35D0EB0704D5F6
:10521000226863680137FCF70FF96D100834F3E773
:105220000000F07F0F270000B7760008AE76000878
:10523000AC760008AD7600080000F03F01FCFFFFEF
:10524000EFFBFFFF120400000EFCFFFFEEFBFFFF71
:10525000000010FE0000F83F61436F63A787D23F54
:10526000B3C8608B288AC63FFB799F501344D33F55
:10527000C87600089077000806900791139B002BD2
:105280001ED0069C079D0022201C291CCE4BFBF73C
:1052900027F9002814D0099B002B11D00B9B002B61
:1052A00000DCE9E0039B291C013B1193201C002238
:1052B000C64BFCF7C1F80137069007910B9D02E041
:1052C000039B099D1193381C069B079C049305942E
:1052D000FCF7FCFE049A059BFCF7AEF80022BC4BE1
:1052E000FBF744F906900791069E079F079BB94A72
:1052F0009C18002D1CD1049805990022B64BFCF790
:1053000035FB321C231C04900591FBF7FDF80028A7
:1053100000D063E204980599321CB04E079CB44655
:105320006444231CFBF7DCF8002800D04CE2A3E027
:10533000AB4A6B1E1099DB00D31800294ED01A68B7
:105340005B680020A749FBF739FC321C231CFCF7E3
:105350000DFB049E059F0C9B069007910493391C3E
:10536000301CFCF77DFE041CFCF7B0FE021C0B1C7D
:10537000301C391CFCF7FAFA049B303401330493D7
:10538000013B1C70069A079B061C0F1CFBF7A8F834
:10539000002800D061E3321C3B1C00208A49FCF746
:1053A000E5FA069A079BFBF79BF8002800D0CDE0B2
:1053B000049B0C9A9B1AAB425EDA0698079900226E
:1053C000824BFCF739F80022069007917F4B301C86
:1053D000391CFCF731F8061C0F1CC0E71868596827
:1053E000321C231CFCF728F8049E059F0C9C069099
:1053F000079163190493391C301CFCF731FE051C1E
:10540000FCF764FE0B1C021C391C301CFCF7AEFAC6
:105410003035049B25700134061C0F1CA34224D197
:105420000022069807996F4BFBF7A0F8021C0B1C93
:10543000301C391CFBF768F8002800D086E0069A7B
:10544000079B00206749FCF791FA021C0B1C301CDB
:10545000391CFBF745F800280ED0049B013B1A7855
:10546000302A00D0F9E20493F7E70022574BFBF70C
:10547000E3FF061C0F1CBEE7149B159C06930794C4
:10548000199B002B00DA86E0039A0E2A00DD82E0E9
:10549000D300534AD3181E685F68219B002B14DA8F
:1054A000099B002B11DC00D090E1301C391C00223C
:1054B000494BFBF7C1FF069A079BFBF72FF8099FA3
:1054C0003E1C002800D083E18CE10C9B069C079DCC
:1054D0000493321C3B1C201C291CFBF76FFBFCF7C0
:1054E000BFFD0690FCF7F2FD321C3B1CFBF7A4FF4E
:1054F000021C0B1C201C291CFCF738FA0B1C0499FD
:10550000021C0698013104913030013908700C9862
:105510000499091A099881422ED1101C191CFBF715
:1055200025F8321C3B1C041C0D1CFAF7EDFF00286B
:1055300010D1201C291C321C3B1CFAF7CBFF002881
:1055400000D18CE2069BDB0704D488E2119B039315
:1055500000E00493049B013B1A78392A08D10C9A85
:105560009342F6D1039B0133039330231370131C32
:105570001A7801321A7072E2101C191C0022134BA7
:10558000FBF75AFF00220023041C0D1CFAF7A2FFB0
:1055900000289ED063E2109A002A44D0209A012A63
:1055A0000BDC169A002A02D00F4A9B1802E0362321
:1055B000189A9B1A0F9D0D9C29E0099B5D1E0F9B5D
:1055C000AB4213DB5D1B18E00000F03F00002440FD
:1055D00000001C400000C0FC000014400000C07C23
:1055E000C87600080000E03F330400000F9B0F95D1
:1055F000EA1A0025129B9B181293099B002B04DAD0
:105600000D9B099A9C1A002301E00D9C099B0D9AA1
:105610000898D2180D920E9A0121D3180E9300F01B
:1056200052FC061C02E00F9D0D9C109E002C0CD01D
:105630000E9B002B09DDA34200DD231C0D9AE41A0A
:10564000D21A0D920E9AD31A0E930F9B002B21DDC6
:10565000109B002B18D0002D10DD311C2A1C08983F
:1056600000F0C8FC061C0A9A311C089800F034FCB3
:10567000071C0A99089800F087FB0A970F9B5A1B92
:1056800008D008980A9902E008980A990F9A00F041
:10569000B1FC0A900898012100F015FC129B071C30
:1056A000002B0ADD391C1A1C089800F0A3FC209B73
:1056B000071C0025012B1BDC03E0209B0025012B90
:1056C00012DC0025069BAB420ED1079B1B03AB42AD
:1056D0000AD1179B079A134206D00D9B013501335F
:1056E0000D930E9B01330E93129B0120002B08D0CB
:1056F0003B6903339B00FB18586800F09AFB20239A
:10570000181A0E9BC0181F23184009D001331B1A0A
:10571000042B02DD1C23181A03E0042B08D0181CEC
:105720001C300D9B24181B180D930E9B1B180E93F9
:105730000D9B002B05DD08980A991A1C00F0ACFCA3
:105740000A900E9B002B05DD391C08981A1C00F0EE
:10575000A3FC071C139B002B1ED00A98391C00F0D9
:10576000EDFC002818DA039B0898013B03930A9983
:1057700000230A2200F021FB109B0A90002B00D18D
:105780007FE1311C002308980A2200F016FB0B9BD6
:10579000061C002B3CDC7DE1099B002B2EDC209BB2
:1057A000022B2BDD099B0B930B9B002B10D1391C7B
:1057B0000898052200F001FB071C0A98391C00F02C
:1057C000BDFC00280EDC03E02F1C00E000273E1C7F
:1057D000219BDB4303930C9B04930CE02F1C2E1C9A
:1057E000119B03930C9B0C9A013304933123137088
:1057F000039B01330393099600261AE1109B002BAB
:1058000004D1099B0B930C9D0A9CD0E0099B0B9340
:10581000002C05DD311C0898221C00F03DFC061C04
:105820000996002D12D07168089800F075FA311CA5
:10583000041C33690C319A1C92000C30FEF7F8FC02
:105840000898211C012200F027FC09900C9B0C9A5F
:105850000E930B9B0A9C013BD3181093391C201C00
:10586000FFF798FA031C0F903033311C201C0D9366
:1058700000F064FC391C0B90099A089800F079FC40
:1058800001230493C368051C002B04D1201C291C90
:1058900000F054FC04900898291C00F075FA049B51
:1058A000209A134310D1069A013313420CD10D985C
:1058B0000A9439283DD00B9B002B01DD0F98313025
:1058C0000E9B013304933EE00B9B002B05DA049BF7
:1058D0000D9D0A94002B09DC1CE00B9D209B1D43B1
:1058E0001ED10123069A13421AD1F0E7211C089811
:1058F000012200F0D1FB391C0A9000F01FFC0028A7
:1059000003DC07D10D9BDB0704D50D9B392B10D091
:105910001D1C01350E9B013304930E9B1D7088E006
:105920000E9B5D1C049B002B10DD0D9B0A94392BF4
:1059300006D10E9B0E9A013304933923137060E055
:105940000D98049501300E9B187072E06A46342160
:10595000521812780E9B04951A70109A93423FD0F9
:10596000211C0A220023089800F027FA099B041C36
:10597000311C08980A229E4205D1002300F01DFA2E
:10598000061C09900AE0002300F017FA0999061C8A
:105990000A220898002300F010FA09900E955DE79E
:1059A000211C08980A22002300F007FA041C201C7E
:1059B000391CFFF7EFF934226B4630309B180D90FD
:1059C0001B780B9A2B700C9B0135EB1A9342E7DB8B
:1059D000131E00DC0123099600260C9AD3180493A9
:1059E000211C0898012200F057FB391C0A9000F096
:1059F000A5FB002805DC15D10D9BDB0701D411E0C8
:105A00000493049B013B1A78392A08D10C9A9342DB
:105A1000F6D1039B013303933123137009E0013264
:105A20001A7006E0049B013B1A78302A01D10493D6
:105A3000F8E70898391C00F0A7F9099B002B0ED055
:105A4000002E05D09E4203D00898311C00F09CF92E
:105A50000898099900F098F901E0119B03930898C0
:105A60000A9900F091F90023049A0C981370039B93
:105A7000229A01331360249B002B10D0049A1A60E1
:105A80000DE00B9B002B00DDBDE6209B022B00DD13
:105A90008AE6B8E6209B022B00DD85E6B8E61BB05F
:105AA000F0BDC046F7B58A89051C0C1C13075ED4EF
:105AB0004B68002B02DC0B6C002B1ADDE76A002F11
:105AC00017D000232E682B6080235B011A4001D081
:105AD000626D15E0281C216A0123B847021C431C93
